{
  "contractName": "Post",
  "abi": [
    {
      "inputs": [
        {
          "internalType": "string",
          "name": "_title",
          "type": "string"
        },
        {
          "internalType": "string",
          "name": "_content",
          "type": "string"
        },
        {
          "internalType": "uint64",
          "name": "_price",
          "type": "uint64"
        },
        {
          "internalType": "address",
          "name": "_author",
          "type": "address"
        }
      ],
      "stateMutability": "nonpayable",
      "type": "constructor"
    },
    {
      "anonymous": false,
      "inputs": [
        {
          "indexed": false,
          "internalType": "address",
          "name": "user",
          "type": "address"
        }
      ],
      "name": "Liked",
      "type": "event"
    },
    {
      "anonymous": false,
      "inputs": [
        {
          "indexed": false,
          "internalType": "address",
          "name": "oldOwner",
          "type": "address"
        },
        {
          "indexed": false,
          "internalType": "address",
          "name": "newOwner",
          "type": "address"
        }
      ],
      "name": "OwnershipChanged",
      "type": "event"
    },
    {
      "anonymous": false,
      "inputs": [
        {
          "indexed": false,
          "internalType": "address",
          "name": "post",
          "type": "address"
        }
      ],
      "name": "PostCreated",
      "type": "event"
    },
    {
      "anonymous": false,
      "inputs": [
        {
          "indexed": false,
          "internalType": "uint64",
          "name": "price",
          "type": "uint64"
        }
      ],
      "name": "PriceChanged",
      "type": "event"
    },
    {
      "inputs": [],
      "name": "author",
      "outputs": [
        {
          "internalType": "address",
          "name": "",
          "type": "address"
        }
      ],
      "stateMutability": "view",
      "type": "function"
    },
    {
      "inputs": [],
      "name": "content",
      "outputs": [
        {
          "internalType": "string",
          "name": "",
          "type": "string"
        }
      ],
      "stateMutability": "view",
      "type": "function"
    },
    {
      "inputs": [],
      "name": "createdAt",
      "outputs": [
        {
          "internalType": "uint256",
          "name": "",
          "type": "uint256"
        }
      ],
      "stateMutability": "view",
      "type": "function"
    },
    {
      "inputs": [
        {
          "internalType": "address",
          "name": "",
          "type": "address"
        }
      ],
      "name": "likes",
      "outputs": [
        {
          "internalType": "bool",
          "name": "",
          "type": "bool"
        }
      ],
      "stateMutability": "view",
      "type": "function"
    },
    {
      "inputs": [],
      "name": "likesCount",
      "outputs": [
        {
          "internalType": "uint256",
          "name": "",
          "type": "uint256"
        }
      ],
      "stateMutability": "view",
      "type": "function"
    },
    {
      "inputs": [],
      "name": "owner",
      "outputs": [
        {
          "internalType": "address",
          "name": "",
          "type": "address"
        }
      ],
      "stateMutability": "view",
      "type": "function"
    },
    {
      "inputs": [],
      "name": "price",
      "outputs": [
        {
          "internalType": "uint64",
          "name": "",
          "type": "uint64"
        }
      ],
      "stateMutability": "view",
      "type": "function"
    },
    {
      "inputs": [],
      "name": "title",
      "outputs": [
        {
          "internalType": "string",
          "name": "",
          "type": "string"
        }
      ],
      "stateMutability": "view",
      "type": "function"
    },
    {
      "inputs": [
        {
          "internalType": "address",
          "name": "_user",
          "type": "address"
        }
      ],
      "name": "buy",
      "outputs": [],
      "stateMutability": "payable",
      "type": "function"
    },
    {
      "inputs": [
        {
          "internalType": "address",
          "name": "_user",
          "type": "address"
        }
      ],
      "name": "like",
      "outputs": [],
      "stateMutability": "nonpayable",
      "type": "function"
    },
    {
      "inputs": [
        {
          "internalType": "uint64",
          "name": "_price",
          "type": "uint64"
        }
      ],
      "name": "changePrice",
      "outputs": [],
      "stateMutability": "nonpayable",
      "type": "function"
    },
    {
      "inputs": [],
      "name": "getOwner",
      "outputs": [
        {
          "internalType": "address",
          "name": "",
          "type": "address"
        }
      ],
      "stateMutability": "view",
      "type": "function"
    }
  ],
  "bytecode": "0x60806040523480156200001157600080fd5b506040516200193a3803806200193a833981810160405281019062000037919062000407565b600073ffffffffffffffffffffffffffffffffffffffff168173ffffffffffffffffffffffffffffffffffffffff1603620000a9576040517f08c379a0000000000000000000000000000000000000000000000000000000008152600401620000a09062000518565b60405180910390fd5b8360009081620000ba919062000785565b508260019081620000cc919062000785565b5080600260006101000a81548173ffffffffffffffffffffffffffffffffffffffff021916908373ffffffffffffffffffffffffffffffffffffffff16021790555080600360006101000a81548173ffffffffffffffffffffffffffffffffffffffff021916908373ffffffffffffffffffffffffffffffffffffffff1602179055504260048190555081600560006101000a81548167ffffffffffffffff021916908367ffffffffffffffff16021790555060006007819055507fb28b103e6296194f6aecace93990102a06a5ae0720dc23aaf51589d563d52dde30604051620001b891906200087d565b60405180910390a1505050506200089a565b6000604051905090565b600080fd5b600080fd5b600080fd5b600080fd5b6000601f19601f8301169050919050565b7f4e487b7100000000000000000000000000000000000000000000000000000000600052604160045260246000fd5b6200023382620001e8565b810181811067ffffffffffffffff82111715620002555762000254620001f9565b5b80604052505050565b60006200026a620001ca565b905062000278828262000228565b919050565b600067ffffffffffffffff8211156200029b576200029a620001f9565b5b620002a682620001e8565b9050602081019050919050565b60005b83811015620002d3578082015181840152602081019050620002b6565b60008484015250505050565b6000620002f6620002f0846200027d565b6200025e565b905082815260208101848484011115620003155762000314620001e3565b5b62000322848285620002b3565b509392505050565b600082601f830112620003425762000341620001de565b5b815162000354848260208601620002df565b91505092915050565b600067ffffffffffffffff82169050919050565b6200037c816200035d565b81146200038857600080fd5b50565b6000815190506200039c8162000371565b92915050565b600073ffffffffffffffffffffffffffffffffffffffff82169050919050565b6000620003cf82620003a2565b9050919050565b620003e181620003c2565b8114620003ed57600080fd5b50565b6000815190506200040181620003d6565b92915050565b60008060008060808587031215620004245762000423620001d4565b5b600085015167ffffffffffffffff811115620004455762000444620001d9565b5b62000453878288016200032a565b945050602085015167ffffffffffffffff811115620004775762000476620001d9565b5b62000485878288016200032a565b935050604062000498878288016200038b565b9250506060620004ab87828801620003f0565b91505092959194509250565b600082825260208201905092915050565b7f417574686f72206d75737420626520612076616c696420757365720000000000600082015250565b600062000500601b83620004b7565b91506200050d82620004c8565b602082019050919050565b600060208201905081810360008301526200053381620004f1565b9050919050565b600081519050919050565b7f4e487b7100000000000000000000000000000000000000000000000000000000600052602260045260246000fd5b600060028204905060018216806200058d57607f821691505b602082108103620005a357620005a262000545565b5b50919050565b60008190508160005260206000209050919050565b60006020601f8301049050919050565b600082821b905092915050565b6000600883026200060d7fffffffffffffffffffffffffffffffffffffffffffffffffffffffffffffffff82620005ce565b620006198683620005ce565b95508019841693508086168417925050509392505050565b6000819050919050565b6000819050919050565b600062000666620006606200065a8462000631565b6200063b565b62000631565b9050919050565b6000819050919050565b620006828362000645565b6200069a62000691826200066d565b848454620005db565b825550505050565b600090565b620006b1620006a2565b620006be81848462000677565b505050565b5b81811015620006e657620006da600082620006a7565b600181019050620006c4565b5050565b601f8211156200073557620006ff81620005a9565b6200070a84620005be565b810160208510156200071a578190505b620007326200072985620005be565b830182620006c3565b50505b505050565b600082821c905092915050565b60006200075a600019846008026200073a565b1980831691505092915050565b600062000775838362000747565b9150826002028217905092915050565b62000790826200053a565b67ffffffffffffffff811115620007ac57620007ab620001f9565b5b620007b8825462000574565b620007c5828285620006ea565b600060209050601f831160018114620007fd5760008415620007e8578287015190505b620007f4858262000767565b86555062000864565b601f1984166200080d86620005a9565b60005b82811015620008375784890151825560018201915060208501945060208101905062000810565b8683101562000857578489015162000853601f89168262000747565b8355505b6001600288020188555050505b505050505050565b6200087781620003c2565b82525050565b60006020820190506200089460008301846200086c565b92915050565b61109080620008aa6000396000f3fe6080604052600436106100a75760003560e01c8063961da1e911610064578063961da1e9146101c0578063a035b1fe146101e9578063a6c3e6b914610214578063cf09e0d01461023f578063e465c4651461026a578063f088d54714610293576100a7565b80630353701a146100ac5780634a79d50c146100d7578063737d368514610102578063893d20e81461013f5780638a4d5a671461016a5780638da5cb5b14610195575b600080fd5b3480156100b857600080fd5b506100c16102af565b6040516100ce9190610a33565b60405180910390f35b3480156100e357600080fd5b506100ec6102b5565b6040516100f99190610ade565b60405180910390f35b34801561010e57600080fd5b5061012960048036038101906101249190610b63565b610343565b6040516101369190610bab565b60405180910390f35b34801561014b57600080fd5b50610154610363565b6040516101619190610bd5565b60405180910390f35b34801561017657600080fd5b5061017f61038d565b60405161018c9190610ade565b60405180910390f35b3480156101a157600080fd5b506101aa61041b565b6040516101b79190610bd5565b60405180910390f35b3480156101cc57600080fd5b506101e760048036038101906101e29190610c30565b610441565b005b3480156101f557600080fd5b506101fe610572565b60405161020b9190610c6c565b60405180910390f35b34801561022057600080fd5b5061022961058c565b6040516102369190610bd5565b60405180910390f35b34801561024b57600080fd5b506102546105b2565b6040516102619190610a33565b60405180910390f35b34801561027657600080fd5b50610291600480360381019061028c9190610b63565b6105b8565b005b6102ad60048036038101906102a89190610b63565b61075e565b005b60075481565b600080546102c290610cb6565b80601f01602080910402602001604051908101604052809291908181526020018280546102ee90610cb6565b801561033b5780601f106103105761010080835404028352916020019161033b565b820191906000526020600020905b81548152906001019060200180831161031e57829003601f168201915b505050505081565b60066020528060005260406000206000915054906101000a900460ff1681565b6000600360009054906101000a900473ffffffffffffffffffffffffffffffffffffffff16905090565b6001805461039a90610cb6565b80601f01602080910402602001604051908101604052809291908181526020018280546103c690610cb6565b80156104135780601f106103e857610100808354040283529160200191610413565b820191906000526020600020905b8154815290600101906020018083116103f657829003601f168201915b505050505081565b600360009054906101000a900473ffffffffffffffffffffffffffffffffffffffff1681565b6000600360009054906101000a900473ffffffffffffffffffffffffffffffffffffffff1690508073ffffffffffffffffffffffffffffffffffffffff16600360009054906101000a900473ffffffffffffffffffffffffffffffffffffffff1673ffffffffffffffffffffffffffffffffffffffff16146104f8576040517f08c379a00000000000000000000000000000000000000000000000000000000081526004016104ef90610d59565b60405180910390fd5b81600560006101000a81548167ffffffffffffffff021916908367ffffffffffffffff1602179055507fd16b8aa4b22cc689d510090657f28a22df35e4b15c729010ada4d9ba83b38154600560009054906101000a900467ffffffffffffffff166040516105669190610c6c565b60405180910390a15050565b600560009054906101000a900467ffffffffffffffff1681565b600260009054906101000a900473ffffffffffffffffffffffffffffffffffffffff1681565b60045481565b600073ffffffffffffffffffffffffffffffffffffffff168173ffffffffffffffffffffffffffffffffffffffff1603610627576040517f08c379a000000000000000000000000000000000000000000000000000000000815260040161061e90610dc5565b60405180910390fd5b600660008273ffffffffffffffffffffffffffffffffffffffff1673ffffffffffffffffffffffffffffffffffffffff16815260200190815260200160002060009054906101000a900460ff16156106b4576040517f08c379a00000000000000000000000000000000000000000000000000000000081526004016106ab90610e31565b60405180910390fd5b6001600660008373ffffffffffffffffffffffffffffffffffffffff1673ffffffffffffffffffffffffffffffffffffffff16815260200190815260200160002060006101000a81548160ff0219169083151502179055506007600081548092919061071f90610e80565b91905055507f44ac6e607615fb694244ba3334a814d86fb64337d5961fd91531260efe10a21d816040516107539190610bd5565b60405180910390a150565b600073ffffffffffffffffffffffffffffffffffffffff168173ffffffffffffffffffffffffffffffffffffffff16036107cd576040517f08c379a00000000000000000000000000000000000000000000000000000000081526004016107c490610dc5565b60405180910390fd5b600560009054906101000a900467ffffffffffffffff1667ffffffffffffffff16341461082f576040517f08c379a000000000000000000000000000000000000000000000000000000000815260040161082690610f3a565b60405180910390fd5b6000600360009054906101000a900473ffffffffffffffffffffffffffffffffffffffff169050600073ffffffffffffffffffffffffffffffffffffffff168173ffffffffffffffffffffffffffffffffffffffff16036108c5576040517f08c379a00000000000000000000000000000000000000000000000000000000081526004016108bc90610fa6565b60405180910390fd5b81600360006101000a81548173ffffffffffffffffffffffffffffffffffffffff021916908373ffffffffffffffffffffffffffffffffffffffff1602179055507f0384899bd253d83b23daa4d29aaa2efe0563d1132b43101e9ad667235aeb951b81600360009054906101000a900473ffffffffffffffffffffffffffffffffffffffff16604051610959929190610fc6565b60405180910390a18073ffffffffffffffffffffffffffffffffffffffff16638da5cb5b6040518163ffffffff1660e01b8152600401602060405180830381865afa1580156109ac573d6000803e3d6000fd5b505050506040513d601f19601f820116820180604052508101906109d0919061102d565b73ffffffffffffffffffffffffffffffffffffffff166108fc349081150290604051600060405180830381858888f19350505050158015610a15573d6000803e3d6000fd5b505050565b6000819050919050565b610a2d81610a1a565b82525050565b6000602082019050610a486000830184610a24565b92915050565b600081519050919050565b600082825260208201905092915050565b60005b83811015610a88578082015181840152602081019050610a6d565b60008484015250505050565b6000601f19601f8301169050919050565b6000610ab082610a4e565b610aba8185610a59565b9350610aca818560208601610a6a565b610ad381610a94565b840191505092915050565b60006020820190508181036000830152610af88184610aa5565b905092915050565b600080fd5b600073ffffffffffffffffffffffffffffffffffffffff82169050919050565b6000610b3082610b05565b9050919050565b610b4081610b25565b8114610b4b57600080fd5b50565b600081359050610b5d81610b37565b92915050565b600060208284031215610b7957610b78610b00565b5b6000610b8784828501610b4e565b91505092915050565b60008115159050919050565b610ba581610b90565b82525050565b6000602082019050610bc06000830184610b9c565b92915050565b610bcf81610b25565b82525050565b6000602082019050610bea6000830184610bc6565b92915050565b600067ffffffffffffffff82169050919050565b610c0d81610bf0565b8114610c1857600080fd5b50565b600081359050610c2a81610c04565b92915050565b600060208284031215610c4657610c45610b00565b5b6000610c5484828501610c1b565b91505092915050565b610c6681610bf0565b82525050565b6000602082019050610c816000830184610c5d565b92915050565b7f4e487b7100000000000000000000000000000000000000000000000000000000600052602260045260246000fd5b60006002820490506001821680610cce57607f821691505b602082108103610ce157610ce0610c87565b5b50919050565b7f596f75206d75737420626520746865206f776e6572206f66207468697320757360008201527f657220746f206368616e67652074686520707269636500000000000000000000602082015250565b6000610d43603683610a59565b9150610d4e82610ce7565b604082019050919050565b60006020820190508181036000830152610d7281610d36565b9050919050565b7f55736572206d75737420626520612076616c6964207573657200000000000000600082015250565b6000610daf601983610a59565b9150610dba82610d79565b602082019050919050565b60006020820190508181036000830152610dde81610da2565b9050919050565b7f596f7520616c7265616479206c696b6564207468697320706f73740000000000600082015250565b6000610e1b601b83610a59565b9150610e2682610de5565b602082019050919050565b60006020820190508181036000830152610e4a81610e0e565b9050919050565b7f4e487b7100000000000000000000000000000000000000000000000000000000600052601160045260246000fd5b6000610e8b82610a1a565b91507fffffffffffffffffffffffffffffffffffffffffffffffffffffffffffffffff8203610ebd57610ebc610e51565b5b600182019050919050565b7f596f75206d757374207061792074686520707269636520746f2062757920746860008201527f697320706f737400000000000000000000000000000000000000000000000000602082015250565b6000610f24602783610a59565b9150610f2f82610ec8565b604082019050919050565b60006020820190508181036000830152610f5381610f17565b9050919050565b7f6f6c644f776e6572206d75737420626520612076616c69642075736572000000600082015250565b6000610f90601d83610a59565b9150610f9b82610f5a565b602082019050919050565b60006020820190508181036000830152610fbf81610f83565b9050919050565b6000604082019050610fdb6000830185610bc6565b610fe86020830184610bc6565b9392505050565b6000610ffa82610b05565b9050919050565b61100a81610fef565b811461101557600080fd5b50565b60008151905061102781611001565b92915050565b60006020828403121561104357611042610b00565b5b600061105184828501611018565b9150509291505056fea2646970667358221220339b74b44e0d958452584f16c8e12c2af9b0c5b9ee0d1f59ec4579c4f6e18d8864736f6c63430008110033",
  "immutableReferences": {},
  "source": "// SPDX-License-Identifier: UNLICENSED\n\npragma solidity 0.8.17;\n\nimport \"./User.sol\";\nimport \"./IPost.sol\";\n\ncontract Post is IPost {\n    string public title;\n    string public content;\n    // User address ! NOT ACCOUNT\n    address public author;\n    // User address ! NOT ACCOUNT\n    address public owner;\n    uint public createdAt;\n    uint64 public price;\n    mapping(address => bool) public likes;\n    uint256 public likesCount;\n\n    constructor(string memory _title, string memory _content, uint64 _price, address _author) {\n        // check if the author is a valid user\n        require(_author != address(0), \"Author must be a valid user\");\n\n        title = _title;\n        content = _content;\n        author = _author;\n        owner = _author;\n        createdAt = uint(block.timestamp);\n        price = _price;\n        likesCount = 0;\n        emit PostCreated(address(this));\n    }\n\n    // change ownership of the post by paying the price\n    function buy(address _user) public payable override {\n        // check if the user is a valid user\n        require(_user != address(0), \"User must be a valid user\");\n        require(msg.value == uint64(price), \"You must pay the price to buy this post\");\n        address oldOwner = owner;\n        require(oldOwner != address(0), \"oldOwner must be a valid user\");\n        // transfer ownership\n        owner = _user;\n        // emit event of ownership change\n        emit OwnershipChanged(oldOwner, owner);\n        // transfer money\n        User(oldOwner).owner().transfer(msg.value);\n    }\n\n    // like the post\n    function like(address _user) public override {\n        // check if the user is a valid user\n        require(_user != address(0), \"User must be a valid user\");\n\n        require(!likes[_user], \"You already liked this post\");\n        // add like\n        likes[_user] = true;\n        likesCount++;\n\n        // emit event of like\n        emit Liked(_user);\n    }\n\n    // change price of the post\n    function changePrice(uint64 _price) public override {\n        User user = User(owner);\n        // check if the user is a valid user\n        require(owner == address(user), \"You must be the owner of this user to change the price\");\n        // update price\n        price = _price;\n        // emit event of price change\n        emit PriceChanged(price);\n    }\n\n    // get owner\n    function getOwner() public view override returns (address) {\n        return owner;\n    }\n}\n",
  "sourcePath": "/home/martin/perso/postandby/on-chain/contracts/Post.sol",
  "compiler": {
    "name": "solc",
    "version": "0.8.17+commit.8df45f5f.Emscripten.clang"
  },
  "schemaVersion": "3.4.10",
  "updatedAt": "2022-10-21T03:35:24.698Z",
  "devdoc": {
    "kind": "dev",
    "methods": {},
    "version": 1
  },
  "userdoc": {
    "kind": "user",
    "methods": {},
    "version": 1
  }
}