{
  "contractName": "Post",
  "abi": [
    {
      "inputs": [
        {
          "internalType": "string",
          "name": "_title",
          "type": "string"
        },
        {
          "internalType": "string",
          "name": "_content",
          "type": "string"
        },
        {
          "internalType": "uint64",
          "name": "_price",
          "type": "uint64"
        },
        {
          "internalType": "address",
          "name": "_author",
          "type": "address"
        }
      ],
      "stateMutability": "nonpayable",
      "type": "constructor"
    },
    {
      "anonymous": false,
      "inputs": [
        {
          "indexed": false,
          "internalType": "address",
          "name": "user",
          "type": "address"
        }
      ],
      "name": "Liked",
      "type": "event"
    },
    {
      "anonymous": false,
      "inputs": [
        {
          "indexed": false,
          "internalType": "address",
          "name": "oldOwner",
          "type": "address"
        },
        {
          "indexed": false,
          "internalType": "address",
          "name": "newOwner",
          "type": "address"
        }
      ],
      "name": "OwnershipChanged",
      "type": "event"
    },
    {
      "anonymous": false,
      "inputs": [
        {
          "indexed": false,
          "internalType": "address",
          "name": "post",
          "type": "address"
        }
      ],
      "name": "PostCreated",
      "type": "event"
    },
    {
      "anonymous": false,
      "inputs": [
        {
          "indexed": false,
          "internalType": "uint64",
          "name": "price",
          "type": "uint64"
        }
      ],
      "name": "PriceChanged",
      "type": "event"
    },
    {
      "inputs": [],
      "name": "author",
      "outputs": [
        {
          "internalType": "address",
          "name": "",
          "type": "address"
        }
      ],
      "stateMutability": "view",
      "type": "function",
      "constant": true
    },
    {
      "inputs": [],
      "name": "content",
      "outputs": [
        {
          "internalType": "string",
          "name": "",
          "type": "string"
        }
      ],
      "stateMutability": "view",
      "type": "function",
      "constant": true
    },
    {
      "inputs": [],
      "name": "createdAt",
      "outputs": [
        {
          "internalType": "uint256",
          "name": "",
          "type": "uint256"
        }
      ],
      "stateMutability": "view",
      "type": "function",
      "constant": true
    },
    {
      "inputs": [
        {
          "internalType": "address",
          "name": "",
          "type": "address"
        }
      ],
      "name": "likes",
      "outputs": [
        {
          "internalType": "bool",
          "name": "",
          "type": "bool"
        }
      ],
      "stateMutability": "view",
      "type": "function",
      "constant": true
    },
    {
      "inputs": [],
      "name": "likesCount",
      "outputs": [
        {
          "internalType": "uint256",
          "name": "",
          "type": "uint256"
        }
      ],
      "stateMutability": "view",
      "type": "function",
      "constant": true
    },
    {
      "inputs": [],
      "name": "owner",
      "outputs": [
        {
          "internalType": "address",
          "name": "",
          "type": "address"
        }
      ],
      "stateMutability": "view",
      "type": "function",
      "constant": true
    },
    {
      "inputs": [],
      "name": "price",
      "outputs": [
        {
          "internalType": "uint64",
          "name": "",
          "type": "uint64"
        }
      ],
      "stateMutability": "view",
      "type": "function",
      "constant": true
    },
    {
      "inputs": [],
      "name": "title",
      "outputs": [
        {
          "internalType": "string",
          "name": "",
          "type": "string"
        }
      ],
      "stateMutability": "view",
      "type": "function",
      "constant": true
    },
    {
      "inputs": [
        {
          "internalType": "address",
          "name": "_user",
          "type": "address"
        }
      ],
      "name": "buy",
      "outputs": [],
      "stateMutability": "payable",
      "type": "function",
      "payable": true
    },
    {
      "inputs": [
        {
          "internalType": "address",
          "name": "_user",
          "type": "address"
        }
      ],
      "name": "like",
      "outputs": [],
      "stateMutability": "nonpayable",
      "type": "function"
    },
    {
      "inputs": [
        {
          "internalType": "uint64",
          "name": "_price",
          "type": "uint64"
        },
        {
          "internalType": "address",
          "name": "_userSender",
          "type": "address"
        }
      ],
      "name": "changePrice",
      "outputs": [],
      "stateMutability": "nonpayable",
      "type": "function"
    },
    {
      "inputs": [],
      "name": "getOwner",
      "outputs": [
        {
          "internalType": "address",
          "name": "",
          "type": "address"
        }
      ],
      "stateMutability": "view",
      "type": "function",
      "constant": true
    }
  ],
  "bytecode": "0x60806040523480156200001157600080fd5b5060405162001d5f38038062001d5f833981810160405281019062000037919062000407565b600073ffffffffffffffffffffffffffffffffffffffff168173ffffffffffffffffffffffffffffffffffffffff1603620000a9576040517f08c379a0000000000000000000000000000000000000000000000000000000008152600401620000a09062000518565b60405180910390fd5b8360009081620000ba919062000785565b508260019081620000cc919062000785565b5080600260006101000a81548173ffffffffffffffffffffffffffffffffffffffff021916908373ffffffffffffffffffffffffffffffffffffffff16021790555080600360006101000a81548173ffffffffffffffffffffffffffffffffffffffff021916908373ffffffffffffffffffffffffffffffffffffffff1602179055504260048190555081600560006101000a81548167ffffffffffffffff021916908367ffffffffffffffff16021790555060006007819055507fb28b103e6296194f6aecace93990102a06a5ae0720dc23aaf51589d563d52dde30604051620001b891906200087d565b60405180910390a1505050506200089a565b6000604051905090565b600080fd5b600080fd5b600080fd5b600080fd5b6000601f19601f8301169050919050565b7f4e487b7100000000000000000000000000000000000000000000000000000000600052604160045260246000fd5b6200023382620001e8565b810181811067ffffffffffffffff82111715620002555762000254620001f9565b5b80604052505050565b60006200026a620001ca565b905062000278828262000228565b919050565b600067ffffffffffffffff8211156200029b576200029a620001f9565b5b620002a682620001e8565b9050602081019050919050565b60005b83811015620002d3578082015181840152602081019050620002b6565b60008484015250505050565b6000620002f6620002f0846200027d565b6200025e565b905082815260208101848484011115620003155762000314620001e3565b5b62000322848285620002b3565b509392505050565b600082601f830112620003425762000341620001de565b5b815162000354848260208601620002df565b91505092915050565b600067ffffffffffffffff82169050919050565b6200037c816200035d565b81146200038857600080fd5b50565b6000815190506200039c8162000371565b92915050565b600073ffffffffffffffffffffffffffffffffffffffff82169050919050565b6000620003cf82620003a2565b9050919050565b620003e181620003c2565b8114620003ed57600080fd5b50565b6000815190506200040181620003d6565b92915050565b60008060008060808587031215620004245762000423620001d4565b5b600085015167ffffffffffffffff811115620004455762000444620001d9565b5b62000453878288016200032a565b945050602085015167ffffffffffffffff811115620004775762000476620001d9565b5b62000485878288016200032a565b935050604062000498878288016200038b565b9250506060620004ab87828801620003f0565b91505092959194509250565b600082825260208201905092915050565b7f417574686f72206d75737420626520612076616c696420757365720000000000600082015250565b600062000500601b83620004b7565b91506200050d82620004c8565b602082019050919050565b600060208201905081810360008301526200053381620004f1565b9050919050565b600081519050919050565b7f4e487b7100000000000000000000000000000000000000000000000000000000600052602260045260246000fd5b600060028204905060018216806200058d57607f821691505b602082108103620005a357620005a262000545565b5b50919050565b60008190508160005260206000209050919050565b60006020601f8301049050919050565b600082821b905092915050565b6000600883026200060d7fffffffffffffffffffffffffffffffffffffffffffffffffffffffffffffffff82620005ce565b620006198683620005ce565b95508019841693508086168417925050509392505050565b6000819050919050565b6000819050919050565b600062000666620006606200065a8462000631565b6200063b565b62000631565b9050919050565b6000819050919050565b620006828362000645565b6200069a62000691826200066d565b848454620005db565b825550505050565b600090565b620006b1620006a2565b620006be81848462000677565b505050565b5b81811015620006e657620006da600082620006a7565b600181019050620006c4565b5050565b601f8211156200073557620006ff81620005a9565b6200070a84620005be565b810160208510156200071a578190505b620007326200072985620005be565b830182620006c3565b50505b505050565b600082821c905092915050565b60006200075a600019846008026200073a565b1980831691505092915050565b600062000775838362000747565b9150826002028217905092915050565b62000790826200053a565b67ffffffffffffffff811115620007ac57620007ab620001f9565b5b620007b8825462000574565b620007c5828285620006ea565b600060209050601f831160018114620007fd5760008415620007e8578287015190505b620007f4858262000767565b86555062000864565b601f1984166200080d86620005a9565b60005b82811015620008375784890151825560018201915060208501945060208101905062000810565b8683101562000857578489015162000853601f89168262000747565b8355505b6001600288020188555050505b505050505050565b6200087781620003c2565b82525050565b60006020820190506200089460008301846200086c565b92915050565b6114b580620008aa6000396000f3fe6080604052600436106100a75760003560e01c8063a035b1fe11610064578063a035b1fe146101c0578063a6c3e6b9146101eb578063cf09e0d014610216578063e465c46514610241578063e80f37e41461026a578063f088d54714610293576100a7565b80630353701a146100ac5780634a79d50c146100d7578063737d368514610102578063893d20e81461013f5780638a4d5a671461016a5780638da5cb5b14610195575b600080fd5b3480156100b857600080fd5b506100c16102af565b6040516100ce9190610d21565b60405180910390f35b3480156100e357600080fd5b506100ec6102b5565b6040516100f99190610dcc565b60405180910390f35b34801561010e57600080fd5b5061012960048036038101906101249190610e51565b610343565b6040516101369190610e99565b60405180910390f35b34801561014b57600080fd5b50610154610363565b6040516101619190610ec3565b60405180910390f35b34801561017657600080fd5b5061017f61038d565b60405161018c9190610dcc565b60405180910390f35b3480156101a157600080fd5b506101aa61041b565b6040516101b79190610ec3565b60405180910390f35b3480156101cc57600080fd5b506101d5610441565b6040516101e29190610f01565b60405180910390f35b3480156101f757600080fd5b5061020061045b565b60405161020d9190610ec3565b60405180910390f35b34801561022257600080fd5b5061022b610481565b6040516102389190610d21565b60405180910390f35b34801561024d57600080fd5b5061026860048036038101906102639190610e51565b610487565b005b34801561027657600080fd5b50610291600480360381019061028c9190610f48565b61070f565b005b6102ad60048036038101906102a89190610e51565b610a4c565b005b60075481565b600080546102c290610fb7565b80601f01602080910402602001604051908101604052809291908181526020018280546102ee90610fb7565b801561033b5780601f106103105761010080835404028352916020019161033b565b820191906000526020600020905b81548152906001019060200180831161031e57829003601f168201915b505050505081565b60066020528060005260406000206000915054906101000a900460ff1681565b6000600360009054906101000a900473ffffffffffffffffffffffffffffffffffffffff16905090565b6001805461039a90610fb7565b80601f01602080910402602001604051908101604052809291908181526020018280546103c690610fb7565b80156104135780601f106103e857610100808354040283529160200191610413565b820191906000526020600020905b8154815290600101906020018083116103f657829003601f168201915b505050505081565b600360009054906101000a900473ffffffffffffffffffffffffffffffffffffffff1681565b600560009054906101000a900467ffffffffffffffff1681565b600260009054906101000a900473ffffffffffffffffffffffffffffffffffffffff1681565b60045481565b600073ffffffffffffffffffffffffffffffffffffffff168173ffffffffffffffffffffffffffffffffffffffff16036104f6576040517f08c379a00000000000000000000000000000000000000000000000000000000081526004016104ed90611034565b60405180910390fd5b60008190503373ffffffffffffffffffffffffffffffffffffffff168173ffffffffffffffffffffffffffffffffffffffff16638da5cb5b6040518163ffffffff1660e01b8152600401602060405180830381865afa15801561055d573d6000803e3d6000fd5b505050506040513d601f19601f820116820180604052508101906105819190611092565b73ffffffffffffffffffffffffffffffffffffffff16146105d7576040517f08c379a00000000000000000000000000000000000000000000000000000000081526004016105ce90611131565b60405180910390fd5b600660008373ffffffffffffffffffffffffffffffffffffffff1673ffffffffffffffffffffffffffffffffffffffff16815260200190815260200160002060009054906101000a900460ff1615610664576040517f08c379a000000000000000000000000000000000000000000000000000000000815260040161065b9061119d565b60405180910390fd5b6001600660008473ffffffffffffffffffffffffffffffffffffffff1673ffffffffffffffffffffffffffffffffffffffff16815260200190815260200160002060006101000a81548160ff021916908315150217905550600760008154809291906106cf906111ec565b91905055507f44ac6e607615fb694244ba3334a814d86fb64337d5961fd91531260efe10a21d826040516107039190610ec3565b60405180910390a15050565b600073ffffffffffffffffffffffffffffffffffffffff168173ffffffffffffffffffffffffffffffffffffffff160361077e576040517f08c379a000000000000000000000000000000000000000000000000000000000815260040161077590611034565b60405180910390fd5b6000600360009054906101000a900473ffffffffffffffffffffffffffffffffffffffff16905060008290503373ffffffffffffffffffffffffffffffffffffffff168173ffffffffffffffffffffffffffffffffffffffff16638da5cb5b6040518163ffffffff1660e01b8152600401602060405180830381865afa15801561080c573d6000803e3d6000fd5b505050506040513d601f19601f820116820180604052508101906108309190611092565b73ffffffffffffffffffffffffffffffffffffffff1614610886576040517f08c379a000000000000000000000000000000000000000000000000000000000815260040161087d906112a6565b60405180910390fd5b8073ffffffffffffffffffffffffffffffffffffffff16638da5cb5b6040518163ffffffff1660e01b8152600401602060405180830381865afa1580156108d1573d6000803e3d6000fd5b505050506040513d601f19601f820116820180604052508101906108f59190611092565b73ffffffffffffffffffffffffffffffffffffffff168273ffffffffffffffffffffffffffffffffffffffff16638da5cb5b6040518163ffffffff1660e01b8152600401602060405180830381865afa158015610956573d6000803e3d6000fd5b505050506040513d601f19601f8201168201806040525081019061097a9190611092565b73ffffffffffffffffffffffffffffffffffffffff16146109d0576040517f08c379a00000000000000000000000000000000000000000000000000000000081526004016109c790611338565b60405180910390fd5b83600560006101000a81548167ffffffffffffffff021916908367ffffffffffffffff1602179055507fd16b8aa4b22cc689d510090657f28a22df35e4b15c729010ada4d9ba83b38154600560009054906101000a900467ffffffffffffffff16604051610a3e9190610f01565b60405180910390a150505050565b600073ffffffffffffffffffffffffffffffffffffffff168173ffffffffffffffffffffffffffffffffffffffff1603610abb576040517f08c379a0000000000000000000000000000000000000000000000000000000008152600401610ab290611034565b60405180910390fd5b600560009054906101000a900467ffffffffffffffff1667ffffffffffffffff163414610b1d576040517f08c379a0000000000000000000000000000000000000000000000000000000008152600401610b14906113ca565b60405180910390fd5b6000600360009054906101000a900473ffffffffffffffffffffffffffffffffffffffff169050600073ffffffffffffffffffffffffffffffffffffffff168173ffffffffffffffffffffffffffffffffffffffff1603610bb3576040517f08c379a0000000000000000000000000000000000000000000000000000000008152600401610baa90611436565b60405180910390fd5b81600360006101000a81548173ffffffffffffffffffffffffffffffffffffffff021916908373ffffffffffffffffffffffffffffffffffffffff1602179055508073ffffffffffffffffffffffffffffffffffffffff16638da5cb5b6040518163ffffffff1660e01b8152600401602060405180830381865afa158015610c3f573d6000803e3d6000fd5b505050506040513d601f19601f82011682018060405250810190610c639190611092565b73ffffffffffffffffffffffffffffffffffffffff166108fc349081150290604051600060405180830381858888f19350505050158015610ca8573d6000803e3d6000fd5b507f0384899bd253d83b23daa4d29aaa2efe0563d1132b43101e9ad667235aeb951b81600360009054906101000a900473ffffffffffffffffffffffffffffffffffffffff16604051610cfc929190611456565b60405180910390a15050565b6000819050919050565b610d1b81610d08565b82525050565b6000602082019050610d366000830184610d12565b92915050565b600081519050919050565b600082825260208201905092915050565b60005b83811015610d76578082015181840152602081019050610d5b565b60008484015250505050565b6000601f19601f8301169050919050565b6000610d9e82610d3c565b610da88185610d47565b9350610db8818560208601610d58565b610dc181610d82565b840191505092915050565b60006020820190508181036000830152610de68184610d93565b905092915050565b600080fd5b600073ffffffffffffffffffffffffffffffffffffffff82169050919050565b6000610e1e82610df3565b9050919050565b610e2e81610e13565b8114610e3957600080fd5b50565b600081359050610e4b81610e25565b92915050565b600060208284031215610e6757610e66610dee565b5b6000610e7584828501610e3c565b91505092915050565b60008115159050919050565b610e9381610e7e565b82525050565b6000602082019050610eae6000830184610e8a565b92915050565b610ebd81610e13565b82525050565b6000602082019050610ed86000830184610eb4565b92915050565b600067ffffffffffffffff82169050919050565b610efb81610ede565b82525050565b6000602082019050610f166000830184610ef2565b92915050565b610f2581610ede565b8114610f3057600080fd5b50565b600081359050610f4281610f1c565b92915050565b60008060408385031215610f5f57610f5e610dee565b5b6000610f6d85828601610f33565b9250506020610f7e85828601610e3c565b9150509250929050565b7f4e487b7100000000000000000000000000000000000000000000000000000000600052602260045260246000fd5b60006002820490506001821680610fcf57607f821691505b602082108103610fe257610fe1610f88565b5b50919050565b7f55736572206d75737420626520612076616c6964207573657200000000000000600082015250565b600061101e601983610d47565b915061102982610fe8565b602082019050919050565b6000602082019050818103600083015261104d81611011565b9050919050565b600061105f82610df3565b9050919050565b61106f81611054565b811461107a57600080fd5b50565b60008151905061108c81611066565b92915050565b6000602082840312156110a8576110a7610dee565b5b60006110b68482850161107d565b91505092915050565b7f596f75206d75737420626520746865206f776e6572206f66207468652075736560008201527f7220746f206c696b65207468697320706f737400000000000000000000000000602082015250565b600061111b603383610d47565b9150611126826110bf565b604082019050919050565b6000602082019050818103600083015261114a8161110e565b9050919050565b7f596f7520616c7265616479206c696b6564207468697320706f73740000000000600082015250565b6000611187601b83610d47565b915061119282611151565b602082019050919050565b600060208201905081810360008301526111b68161117a565b9050919050565b7f4e487b7100000000000000000000000000000000000000000000000000000000600052601160045260246000fd5b60006111f782610d08565b91507fffffffffffffffffffffffffffffffffffffffffffffffffffffffffffffffff8203611229576112286111bd565b5b600182019050919050565b7f596f75206d75737420626520746865206f776e6572206f66207468697320757360008201527f657220746f206368616e67652074686520707269636500000000000000000000602082015250565b6000611290603683610d47565b915061129b82611234565b604082019050919050565b600060208201905081810360008301526112bf81611283565b9050919050565b7f596f75206d75737420626520746865206f776e6572206f66207468697320706f60008201527f737420746f206368616e67652074686520707269636500000000000000000000602082015250565b6000611322603683610d47565b915061132d826112c6565b604082019050919050565b6000602082019050818103600083015261135181611315565b9050919050565b7f596f75206d757374207061792074686520707269636520746f2062757920746860008201527f697320706f737400000000000000000000000000000000000000000000000000602082015250565b60006113b4602783610d47565b91506113bf82611358565b604082019050919050565b600060208201905081810360008301526113e3816113a7565b9050919050565b7f6f6c644f776e6572206d75737420626520612076616c69642075736572000000600082015250565b6000611420601d83610d47565b915061142b826113ea565b602082019050919050565b6000602082019050818103600083015261144f81611413565b9050919050565b600060408201905061146b6000830185610eb4565b6114786020830184610eb4565b939250505056fea2646970667358221220907df4c100477547dd39f4f57df602be05b19246c043fa917b66b4734605e78864736f6c63430008110033",
  "immutableReferences": {},
  "source": "// SPDX-License-Identifier: UNLICENSED\n\npragma solidity 0.8.17;\n\nimport \"./User.sol\";\nimport \"./IPost.sol\";\n\ncontract Post is IPost {\n    string public title;\n    string public content;\n    // User address ! NOT ACCOUNT\n    address public author;\n    // User address ! NOT ACCOUNT\n    address public owner;\n    uint public createdAt;\n    uint64 public price;\n    mapping(address => bool) public likes;\n    uint256 public likesCount;\n\n    constructor(string memory _title, string memory _content, uint64 _price, address _author) {\n        // check if the author is a valid user\n        require(_author != address(0), \"Author must be a valid user\");\n\n        title = _title;\n        content = _content;\n        author = _author;\n        owner = _author;\n        createdAt = uint(block.timestamp);\n        price = _price;\n        likesCount = 0;\n        emit PostCreated(address(this));\n    }\n\n    // change ownership of the post by paying the price\n    function buy(address _user) public payable override {\n        // check if the user is a valid user\n        require(_user != address(0), \"User must be a valid user\");\n        require(msg.value == uint64(price), \"You must pay the price to buy this post\");\n        address oldOwner = owner;\n        require(oldOwner != address(0), \"oldOwner must be a valid user\");\n        // transfer ownership\n        owner = _user;\n        // transfer money\n        User(oldOwner).owner().transfer(msg.value);\n        // emit event of ownership change\n        emit OwnershipChanged(oldOwner, owner);\n    }\n\n    // like the post\n    function like(address _user) public override {\n        // check if the user is a valid user\n        require(_user != address(0), \"User must be a valid user\");\n\n        User user = User(_user);\n\n        require(user.owner() == msg.sender, \"You must be the owner of the user to like this post\");\n        require(!likes[_user], \"You already liked this post\");\n        // add like\n        likes[_user] = true;\n        likesCount++;\n\n        // emit event of like\n        emit Liked(_user);\n    }\n\n    // change price of the post\n    function changePrice(uint64 _price, address _userSender) public override {\n        // check if the user is a valid user\n        require(_userSender != address(0), \"User must be a valid user\");\n        User user = User(owner);\n        User sender = User(_userSender);\n\n        require(address(sender.owner()) == msg.sender, \"You must be the owner of this user to change the price\");\n        require(address(user.owner()) == address(sender.owner()), \"You must be the owner of this post to change the price\");\n        // update price\n        price = _price;\n\n        // emit event of price change\n        emit PriceChanged(price);\n    }\n\n    // get owner\n    function getOwner() public view override returns (address) {\n        return owner;\n    }\n}\n",
  "sourcePath": "/home/martin/perso/postandby/on-chain/contracts/Post.sol",
  "compiler": {
    "name": "solc",
    "version": "0.8.17+commit.8df45f5f.Emscripten.clang"
  },
  "schemaVersion": "3.4.10",
  "updatedAt": "2022-10-13T23:58:55.640Z",
  "networkType": "ethereum",
  "devdoc": {
    "kind": "dev",
    "methods": {},
    "version": 1
  },
  "userdoc": {
    "kind": "user",
    "methods": {},
    "version": 1
  }
}