{
  "contractName": "Post",
  "abi": [
    {
      "inputs": [
        {
          "internalType": "string",
          "name": "_title",
          "type": "string"
        },
        {
          "internalType": "string",
          "name": "_content",
          "type": "string"
        },
        {
          "internalType": "int64",
          "name": "_price",
          "type": "int64"
        },
        {
          "internalType": "address",
          "name": "_author",
          "type": "address"
        }
      ],
      "stateMutability": "nonpayable",
      "type": "constructor"
    },
    {
      "anonymous": false,
      "inputs": [
        {
          "indexed": false,
          "internalType": "address",
          "name": "user",
          "type": "address"
        }
      ],
      "name": "Liked",
      "type": "event"
    },
    {
      "anonymous": false,
      "inputs": [
        {
          "indexed": false,
          "internalType": "address",
          "name": "oldOwner",
          "type": "address"
        },
        {
          "indexed": false,
          "internalType": "address",
          "name": "newOwner",
          "type": "address"
        }
      ],
      "name": "OwnershipChanged",
      "type": "event"
    },
    {
      "anonymous": false,
      "inputs": [
        {
          "indexed": false,
          "internalType": "address",
          "name": "post",
          "type": "address"
        }
      ],
      "name": "PostCreated",
      "type": "event"
    },
    {
      "anonymous": false,
      "inputs": [
        {
          "indexed": false,
          "internalType": "int64",
          "name": "price",
          "type": "int64"
        }
      ],
      "name": "PriceChanged",
      "type": "event"
    },
    {
      "inputs": [],
      "name": "author",
      "outputs": [
        {
          "internalType": "address",
          "name": "",
          "type": "address"
        }
      ],
      "stateMutability": "view",
      "type": "function",
      "constant": true
    },
    {
      "inputs": [],
      "name": "content",
      "outputs": [
        {
          "internalType": "string",
          "name": "",
          "type": "string"
        }
      ],
      "stateMutability": "view",
      "type": "function",
      "constant": true
    },
    {
      "inputs": [],
      "name": "createdAt",
      "outputs": [
        {
          "internalType": "uint256",
          "name": "",
          "type": "uint256"
        }
      ],
      "stateMutability": "view",
      "type": "function",
      "constant": true
    },
    {
      "inputs": [
        {
          "internalType": "address",
          "name": "",
          "type": "address"
        }
      ],
      "name": "likes",
      "outputs": [
        {
          "internalType": "bool",
          "name": "",
          "type": "bool"
        }
      ],
      "stateMutability": "view",
      "type": "function",
      "constant": true
    },
    {
      "inputs": [],
      "name": "likesCount",
      "outputs": [
        {
          "internalType": "uint256",
          "name": "",
          "type": "uint256"
        }
      ],
      "stateMutability": "view",
      "type": "function",
      "constant": true
    },
    {
      "inputs": [],
      "name": "owner",
      "outputs": [
        {
          "internalType": "address",
          "name": "",
          "type": "address"
        }
      ],
      "stateMutability": "view",
      "type": "function",
      "constant": true
    },
    {
      "inputs": [],
      "name": "price",
      "outputs": [
        {
          "internalType": "int64",
          "name": "",
          "type": "int64"
        }
      ],
      "stateMutability": "view",
      "type": "function",
      "constant": true
    },
    {
      "inputs": [],
      "name": "title",
      "outputs": [
        {
          "internalType": "string",
          "name": "",
          "type": "string"
        }
      ],
      "stateMutability": "view",
      "type": "function",
      "constant": true
    },
    {
      "inputs": [
        {
          "internalType": "address",
          "name": "_user",
          "type": "address"
        }
      ],
      "name": "buy",
      "outputs": [],
      "stateMutability": "payable",
      "type": "function",
      "payable": true
    },
    {
      "inputs": [
        {
          "internalType": "address",
          "name": "_user",
          "type": "address"
        }
      ],
      "name": "like",
      "outputs": [],
      "stateMutability": "nonpayable",
      "type": "function"
    },
    {
      "inputs": [
        {
          "internalType": "int64",
          "name": "_price",
          "type": "int64"
        },
        {
          "internalType": "address",
          "name": "_user_sender",
          "type": "address"
        }
      ],
      "name": "changePrice",
      "outputs": [],
      "stateMutability": "nonpayable",
      "type": "function"
    },
    {
      "inputs": [],
      "name": "getOwner",
      "outputs": [
        {
          "internalType": "address",
          "name": "",
          "type": "address"
        }
      ],
      "stateMutability": "view",
      "type": "function",
      "constant": true
    }
  ],
  "bytecode": "0x60806040523480156200001157600080fd5b5060405162001a3038038062001a30833981810160405281019062000037919062000391565b83600090816200004891906200068c565b5082600190816200005a91906200068c565b5080600260006101000a81548173ffffffffffffffffffffffffffffffffffffffff021916908373ffffffffffffffffffffffffffffffffffffffff16021790555080600360006101000a81548173ffffffffffffffffffffffffffffffffffffffff021916908373ffffffffffffffffffffffffffffffffffffffff1602179055504260048190555081600560006101000a81548167ffffffffffffffff021916908360070b67ffffffffffffffff16021790555060006007819055507fb28b103e6296194f6aecace93990102a06a5ae0720dc23aaf51589d563d52dde3060405162000149919062000784565b60405180910390a150505050620007a1565b6000604051905090565b600080fd5b600080fd5b600080fd5b600080fd5b6000601f19601f8301169050919050565b7f4e487b7100000000000000000000000000000000000000000000000000000000600052604160045260246000fd5b620001c48262000179565b810181811067ffffffffffffffff82111715620001e657620001e56200018a565b5b80604052505050565b6000620001fb6200015b565b9050620002098282620001b9565b919050565b600067ffffffffffffffff8211156200022c576200022b6200018a565b5b620002378262000179565b9050602081019050919050565b60005b838110156200026457808201518184015260208101905062000247565b60008484015250505050565b60006200028762000281846200020e565b620001ef565b905082815260208101848484011115620002a657620002a562000174565b5b620002b384828562000244565b509392505050565b600082601f830112620002d357620002d26200016f565b5b8151620002e584826020860162000270565b91505092915050565b60008160070b9050919050565b6200030681620002ee565b81146200031257600080fd5b50565b6000815190506200032681620002fb565b92915050565b600073ffffffffffffffffffffffffffffffffffffffff82169050919050565b600062000359826200032c565b9050919050565b6200036b816200034c565b81146200037757600080fd5b50565b6000815190506200038b8162000360565b92915050565b60008060008060808587031215620003ae57620003ad62000165565b5b600085015167ffffffffffffffff811115620003cf57620003ce6200016a565b5b620003dd87828801620002bb565b945050602085015167ffffffffffffffff8111156200040157620004006200016a565b5b6200040f87828801620002bb565b9350506040620004228782880162000315565b925050606062000435878288016200037a565b91505092959194509250565b600081519050919050565b7f4e487b7100000000000000000000000000000000000000000000000000000000600052602260045260246000fd5b600060028204905060018216806200049457607f821691505b602082108103620004aa57620004a96200044c565b5b50919050565b60008190508160005260206000209050919050565b60006020601f8301049050919050565b600082821b905092915050565b600060088302620005147fffffffffffffffffffffffffffffffffffffffffffffffffffffffffffffffff82620004d5565b620005208683620004d5565b95508019841693508086168417925050509392505050565b6000819050919050565b6000819050919050565b60006200056d62000567620005618462000538565b62000542565b62000538565b9050919050565b6000819050919050565b62000589836200054c565b620005a1620005988262000574565b848454620004e2565b825550505050565b600090565b620005b8620005a9565b620005c58184846200057e565b505050565b5b81811015620005ed57620005e1600082620005ae565b600181019050620005cb565b5050565b601f8211156200063c576200060681620004b0565b6200061184620004c5565b8101602085101562000621578190505b620006396200063085620004c5565b830182620005ca565b50505b505050565b600082821c905092915050565b6000620006616000198460080262000641565b1980831691505092915050565b60006200067c83836200064e565b9150826002028217905092915050565b620006978262000441565b67ffffffffffffffff811115620006b357620006b26200018a565b5b620006bf82546200047b565b620006cc828285620005f1565b600060209050601f831160018114620007045760008415620006ef578287015190505b620006fb85826200066e565b8655506200076b565b601f1984166200071486620004b0565b60005b828110156200073e5784890151825560018201915060208501945060208101905062000717565b868310156200075e57848901516200075a601f8916826200064e565b8355505b6001600288020188555050505b505050505050565b6200077e816200034c565b82525050565b60006020820190506200079b600083018462000773565b92915050565b61127f80620007b16000396000f3fe6080604052600436106100a75760003560e01c8063a035b1fe11610064578063a035b1fe146101c0578063a6c3e6b9146101eb578063b429563a14610216578063cf09e0d01461023f578063e465c4651461026a578063f088d54714610293576100a7565b80630353701a146100ac5780634a79d50c146100d7578063737d368514610102578063893d20e81461013f5780638a4d5a671461016a5780638da5cb5b14610195575b600080fd5b3480156100b857600080fd5b506100c16102af565b6040516100ce9190610bca565b60405180910390f35b3480156100e357600080fd5b506100ec6102b5565b6040516100f99190610c75565b60405180910390f35b34801561010e57600080fd5b5061012960048036038101906101249190610cfa565b610343565b6040516101369190610d42565b60405180910390f35b34801561014b57600080fd5b50610154610363565b6040516101619190610d6c565b60405180910390f35b34801561017657600080fd5b5061017f61038d565b60405161018c9190610c75565b60405180910390f35b3480156101a157600080fd5b506101aa61041b565b6040516101b79190610d6c565b60405180910390f35b3480156101cc57600080fd5b506101d5610441565b6040516101e29190610da3565b60405180910390f35b3480156101f757600080fd5b50610200610454565b60405161020d9190610d6c565b60405180910390f35b34801561022257600080fd5b5061023d60048036038101906102389190610dea565b61047a565b005b34801561024b57600080fd5b50610254610744565b6040516102619190610bca565b60405180910390f35b34801561027657600080fd5b50610291600480360381019061028c9190610cfa565b61074a565b005b6102ad60048036038101906102a89190610cfa565b610969565b005b60075481565b600080546102c290610e59565b80601f01602080910402602001604051908101604052809291908181526020018280546102ee90610e59565b801561033b5780601f106103105761010080835404028352916020019161033b565b820191906000526020600020905b81548152906001019060200180831161031e57829003601f168201915b505050505081565b60066020528060005260406000206000915054906101000a900460ff1681565b6000600360009054906101000a900473ffffffffffffffffffffffffffffffffffffffff16905090565b6001805461039a90610e59565b80601f01602080910402602001604051908101604052809291908181526020018280546103c690610e59565b80156104135780601f106103e857610100808354040283529160200191610413565b820191906000526020600020905b8154815290600101906020018083116103f657829003601f168201915b505050505081565b600360009054906101000a900473ffffffffffffffffffffffffffffffffffffffff1681565b600560009054906101000a900460070b81565b600260009054906101000a900473ffffffffffffffffffffffffffffffffffffffff1681565b6000600360009054906101000a900473ffffffffffffffffffffffffffffffffffffffff16905060008290503373ffffffffffffffffffffffffffffffffffffffff168173ffffffffffffffffffffffffffffffffffffffff16638da5cb5b6040518163ffffffff1660e01b8152600401602060405180830381865afa158015610508573d6000803e3d6000fd5b505050506040513d601f19601f8201168201806040525081019061052c9190610ec8565b73ffffffffffffffffffffffffffffffffffffffff1614610582576040517f08c379a000000000000000000000000000000000000000000000000000000000815260040161057990610f67565b60405180910390fd5b8073ffffffffffffffffffffffffffffffffffffffff16638da5cb5b6040518163ffffffff1660e01b8152600401602060405180830381865afa1580156105cd573d6000803e3d6000fd5b505050506040513d601f19601f820116820180604052508101906105f19190610ec8565b73ffffffffffffffffffffffffffffffffffffffff168273ffffffffffffffffffffffffffffffffffffffff16638da5cb5b6040518163ffffffff1660e01b8152600401602060405180830381865afa158015610652573d6000803e3d6000fd5b505050506040513d601f19601f820116820180604052508101906106769190610ec8565b73ffffffffffffffffffffffffffffffffffffffff16146106cc576040517f08c379a00000000000000000000000000000000000000000000000000000000081526004016106c390610ff9565b60405180910390fd5b83600560006101000a81548167ffffffffffffffff021916908360070b67ffffffffffffffff1602179055507f7ecdea6a500e78fd97ea5e85586b7203e86ba29a0abacb52eb998c4228cb0e52600560009054906101000a900460070b6040516107369190610da3565b60405180910390a150505050565b60045481565b60008190503373ffffffffffffffffffffffffffffffffffffffff168173ffffffffffffffffffffffffffffffffffffffff16638da5cb5b6040518163ffffffff1660e01b8152600401602060405180830381865afa1580156107b1573d6000803e3d6000fd5b505050506040513d601f19601f820116820180604052508101906107d59190610ec8565b73ffffffffffffffffffffffffffffffffffffffff161461082b576040517f08c379a00000000000000000000000000000000000000000000000000000000081526004016108229061108b565b60405180910390fd5b60001515600660008473ffffffffffffffffffffffffffffffffffffffff1673ffffffffffffffffffffffffffffffffffffffff16815260200190815260200160002060009054906101000a900460ff161515146108be576040517f08c379a00000000000000000000000000000000000000000000000000000000081526004016108b5906110f7565b60405180910390fd5b6001600660008473ffffffffffffffffffffffffffffffffffffffff1673ffffffffffffffffffffffffffffffffffffffff16815260200190815260200160002060006101000a81548160ff0219169083151502179055506007600081548092919061092990611146565b91905055507f44ac6e607615fb694244ba3334a814d86fb64337d5961fd91531260efe10a21d8260405161095d9190610d6c565b60405180910390a15050565b600560009054906101000a900460070b67ffffffffffffffff1634146109c4576040517f08c379a00000000000000000000000000000000000000000000000000000000081526004016109bb90611200565b60405180910390fd5b6000600360009054906101000a900473ffffffffffffffffffffffffffffffffffffffff16905081600360006101000a81548173ffffffffffffffffffffffffffffffffffffffff021916908373ffffffffffffffffffffffffffffffffffffffff1602179055508073ffffffffffffffffffffffffffffffffffffffff16638da5cb5b6040518163ffffffff1660e01b8152600401602060405180830381865afa158015610a77573d6000803e3d6000fd5b505050506040513d601f19601f82011682018060405250810190610a9b9190610ec8565b73ffffffffffffffffffffffffffffffffffffffff166108fc349081150290604051600060405180830381858888f19350505050158015610ae0573d6000803e3d6000fd5b507f0384899bd253d83b23daa4d29aaa2efe0563d1132b43101e9ad667235aeb951b81600360009054906101000a900473ffffffffffffffffffffffffffffffffffffffff16604051610b34929190611220565b60405180910390a160008190508073ffffffffffffffffffffffffffffffffffffffff1663d091ec31306040518263ffffffff1660e01b8152600401610b7a9190610d6c565b600060405180830381600087803b158015610b9457600080fd5b505af1158015610ba8573d6000803e3d6000fd5b50505050505050565b6000819050919050565b610bc481610bb1565b82525050565b6000602082019050610bdf6000830184610bbb565b92915050565b600081519050919050565b600082825260208201905092915050565b60005b83811015610c1f578082015181840152602081019050610c04565b60008484015250505050565b6000601f19601f8301169050919050565b6000610c4782610be5565b610c518185610bf0565b9350610c61818560208601610c01565b610c6a81610c2b565b840191505092915050565b60006020820190508181036000830152610c8f8184610c3c565b905092915050565b600080fd5b600073ffffffffffffffffffffffffffffffffffffffff82169050919050565b6000610cc782610c9c565b9050919050565b610cd781610cbc565b8114610ce257600080fd5b50565b600081359050610cf481610cce565b92915050565b600060208284031215610d1057610d0f610c97565b5b6000610d1e84828501610ce5565b91505092915050565b60008115159050919050565b610d3c81610d27565b82525050565b6000602082019050610d576000830184610d33565b92915050565b610d6681610cbc565b82525050565b6000602082019050610d816000830184610d5d565b92915050565b60008160070b9050919050565b610d9d81610d87565b82525050565b6000602082019050610db86000830184610d94565b92915050565b610dc781610d87565b8114610dd257600080fd5b50565b600081359050610de481610dbe565b92915050565b60008060408385031215610e0157610e00610c97565b5b6000610e0f85828601610dd5565b9250506020610e2085828601610ce5565b9150509250929050565b7f4e487b7100000000000000000000000000000000000000000000000000000000600052602260045260246000fd5b60006002820490506001821680610e7157607f821691505b602082108103610e8457610e83610e2a565b5b50919050565b6000610e9582610c9c565b9050919050565b610ea581610e8a565b8114610eb057600080fd5b50565b600081519050610ec281610e9c565b92915050565b600060208284031215610ede57610edd610c97565b5b6000610eec84828501610eb3565b91505092915050565b7f596f75206d75737420626520746865206f776e6572206f66207468697320757360008201527f657220746f206368616e67652074686520707269636500000000000000000000602082015250565b6000610f51603683610bf0565b9150610f5c82610ef5565b604082019050919050565b60006020820190508181036000830152610f8081610f44565b9050919050565b7f596f75206d75737420626520746865206f776e6572206f66207468697320706f60008201527f737420746f206368616e67652074686520707269636500000000000000000000602082015250565b6000610fe3603683610bf0565b9150610fee82610f87565b604082019050919050565b6000602082019050818103600083015261101281610fd6565b9050919050565b7f596f75206d75737420626520746865206f776e6572206f66207468652075736560008201527f7220746f206c696b65207468697320706f737400000000000000000000000000602082015250565b6000611075603383610bf0565b915061108082611019565b604082019050919050565b600060208201905081810360008301526110a481611068565b9050919050565b7f596f7520616c7265616479206c696b6564207468697320706f73740000000000600082015250565b60006110e1601b83610bf0565b91506110ec826110ab565b602082019050919050565b60006020820190508181036000830152611110816110d4565b9050919050565b7f4e487b7100000000000000000000000000000000000000000000000000000000600052601160045260246000fd5b600061115182610bb1565b91507fffffffffffffffffffffffffffffffffffffffffffffffffffffffffffffffff820361118357611182611117565b5b600182019050919050565b7f596f75206d757374207061792074686520707269636520746f2062757920746860008201527f697320706f737400000000000000000000000000000000000000000000000000602082015250565b60006111ea602783610bf0565b91506111f58261118e565b604082019050919050565b60006020820190508181036000830152611219816111dd565b9050919050565b60006040820190506112356000830185610d5d565b6112426020830184610d5d565b939250505056fea26469706673582212200dd9aed697f08eec9ecc3cf07fc24f95eb154a7376762336da8b73ef7cf51c1964736f6c63430008110033",
  "immutableReferences": {},
  "source": "// SPDX-License-Identifier: UNLICENSED\n\npragma solidity >=0.7.0 <0.9.0;\n\nimport \"./User.sol\";\nimport \"./IPost.sol\";\n\ncontract Post is IPost {\n    string public title;\n    string public content;\n    // User address ! NOT ACCOUNT\n    address public author;\n    // User address ! NOT ACCOUNT\n    address public owner;\n    uint public createdAt;\n    int64 public price;\n    mapping(address => bool) public likes;\n    uint256 public likesCount;\n\n    constructor(string memory _title, string memory _content, int64 _price, address _author) {\n        title = _title;\n        content = _content;\n        author = _author;\n        owner = _author;\n        createdAt = uint(block.timestamp);\n        price = _price;\n        likesCount = 0;\n        emit PostCreated(address(this));\n    }\n\n    // change ownership of the post by paying the price\n    function buy(address _user) public payable override {\n        require(msg.value == uint64(price), \"You must pay the price to buy this post\");\n        address oldOwner = owner;\n        // transfer ownership\n        owner = _user;\n        // transfer money\n        User(oldOwner).owner().transfer(msg.value);\n        // emit event of ownership change\n        emit OwnershipChanged(oldOwner, owner);\n        // detect if the post was sold\n        User user = User(oldOwner);\n        // if the post was sold, the user's posts will be updated\n        user.removePost(address(this));\n    }\n\n    // like the post\n    function like(address _user) public override {\n        User user = User(_user);\n\n        require(user.owner() == msg.sender, \"You must be the owner of the user to like this post\");\n        require(likes[_user] == false, \"You already liked this post\");\n        // add like\n        likes[_user] = true;\n        likesCount++;\n\n        // emit event of like\n        emit Liked(_user);\n    }\n\n    // change price of the post\n    function changePrice(int64 _price, address _user_sender) public override {\n        User user = User(owner);\n        User sender = User(_user_sender);\n\n        require(address(sender.owner()) == msg.sender, \"You must be the owner of this user to change the price\");\n        require(address(user.owner()) == address(sender.owner()), \"You must be the owner of this post to change the price\");\n        // update price\n        price = _price;\n\n        // emit event of price change\n        emit PriceChanged(price);\n    }\n\n    // get owner\n    function getOwner() public view override returns (address) {\n        return owner;\n    }\n}\n",
  "sourcePath": "/home/martin/perso/postandby/on-chain/contracts/Post.sol",
  "compiler": {
    "name": "solc",
    "version": "0.8.17+commit.8df45f5f.Emscripten.clang"
  },
  "schemaVersion": "3.4.10",
  "updatedAt": "2022-10-13T16:18:26.434Z",
  "networkType": "ethereum",
  "devdoc": {
    "kind": "dev",
    "methods": {},
    "version": 1
  },
  "userdoc": {
    "kind": "user",
    "methods": {},
    "version": 1
  }
}