{
  "contractName": "User",
  "abi": [
    {
      "inputs": [
        {
          "internalType": "string",
          "name": "_name",
          "type": "string"
        },
        {
          "internalType": "string",
          "name": "_email",
          "type": "string"
        },
        {
          "internalType": "int64",
          "name": "_price",
          "type": "int64"
        }
      ],
      "stateMutability": "nonpayable",
      "type": "constructor"
    },
    {
      "anonymous": false,
      "inputs": [
        {
          "indexed": false,
          "internalType": "string",
          "name": "email",
          "type": "string"
        }
      ],
      "name": "EmailUpdated",
      "type": "event"
    },
    {
      "anonymous": false,
      "inputs": [
        {
          "indexed": false,
          "internalType": "address",
          "name": "user",
          "type": "address"
        }
      ],
      "name": "Followed",
      "type": "event"
    },
    {
      "anonymous": false,
      "inputs": [
        {
          "indexed": false,
          "internalType": "string",
          "name": "name",
          "type": "string"
        }
      ],
      "name": "NameUpdated",
      "type": "event"
    },
    {
      "anonymous": false,
      "inputs": [
        {
          "indexed": false,
          "internalType": "address",
          "name": "oldOwner",
          "type": "address"
        },
        {
          "indexed": false,
          "internalType": "address",
          "name": "newOwner",
          "type": "address"
        }
      ],
      "name": "OwnershipTransferred",
      "type": "event"
    },
    {
      "anonymous": false,
      "inputs": [
        {
          "indexed": false,
          "internalType": "address",
          "name": "post",
          "type": "address"
        }
      ],
      "name": "PostCreatedFromUser",
      "type": "event"
    },
    {
      "anonymous": false,
      "inputs": [
        {
          "indexed": false,
          "internalType": "address",
          "name": "post",
          "type": "address"
        }
      ],
      "name": "PostSold",
      "type": "event"
    },
    {
      "anonymous": false,
      "inputs": [
        {
          "indexed": false,
          "internalType": "address",
          "name": "user",
          "type": "address"
        }
      ],
      "name": "UserBought",
      "type": "event"
    },
    {
      "anonymous": false,
      "inputs": [
        {
          "indexed": false,
          "internalType": "address",
          "name": "user",
          "type": "address"
        }
      ],
      "name": "UserCreated",
      "type": "event"
    },
    {
      "inputs": [
        {
          "internalType": "address",
          "name": "",
          "type": "address"
        }
      ],
      "name": "following",
      "outputs": [
        {
          "internalType": "bool",
          "name": "",
          "type": "bool"
        }
      ],
      "stateMutability": "view",
      "type": "function",
      "constant": true
    },
    {
      "inputs": [],
      "name": "name",
      "outputs": [
        {
          "internalType": "string",
          "name": "",
          "type": "string"
        }
      ],
      "stateMutability": "view",
      "type": "function",
      "constant": true
    },
    {
      "inputs": [],
      "name": "owner",
      "outputs": [
        {
          "internalType": "address payable",
          "name": "",
          "type": "address"
        }
      ],
      "stateMutability": "view",
      "type": "function",
      "constant": true
    },
    {
      "inputs": [
        {
          "internalType": "uint256",
          "name": "",
          "type": "uint256"
        }
      ],
      "name": "posts",
      "outputs": [
        {
          "internalType": "address",
          "name": "",
          "type": "address"
        }
      ],
      "stateMutability": "view",
      "type": "function",
      "constant": true
    },
    {
      "inputs": [],
      "name": "price",
      "outputs": [
        {
          "internalType": "int64",
          "name": "",
          "type": "int64"
        }
      ],
      "stateMutability": "view",
      "type": "function",
      "constant": true
    },
    {
      "inputs": [
        {
          "internalType": "string",
          "name": "_name",
          "type": "string"
        }
      ],
      "name": "updateName",
      "outputs": [],
      "stateMutability": "nonpayable",
      "type": "function"
    },
    {
      "inputs": [
        {
          "internalType": "string",
          "name": "_email",
          "type": "string"
        }
      ],
      "name": "updateEmail",
      "outputs": [],
      "stateMutability": "nonpayable",
      "type": "function"
    },
    {
      "inputs": [],
      "name": "getEmail",
      "outputs": [
        {
          "internalType": "string",
          "name": "",
          "type": "string"
        }
      ],
      "stateMutability": "view",
      "type": "function",
      "constant": true
    },
    {
      "inputs": [
        {
          "internalType": "address",
          "name": "_newOwner",
          "type": "address"
        }
      ],
      "name": "transferOwnership",
      "outputs": [],
      "stateMutability": "nonpayable",
      "type": "function"
    },
    {
      "inputs": [],
      "name": "buyUser",
      "outputs": [],
      "stateMutability": "payable",
      "type": "function",
      "payable": true
    },
    {
      "inputs": [
        {
          "internalType": "string",
          "name": "_title",
          "type": "string"
        },
        {
          "internalType": "string",
          "name": "_content",
          "type": "string"
        },
        {
          "internalType": "int64",
          "name": "_price",
          "type": "int64"
        }
      ],
      "name": "createPost",
      "outputs": [
        {
          "internalType": "address",
          "name": "",
          "type": "address"
        }
      ],
      "stateMutability": "nonpayable",
      "type": "function"
    },
    {
      "inputs": [],
      "name": "getPostsLength",
      "outputs": [
        {
          "internalType": "uint256",
          "name": "",
          "type": "uint256"
        }
      ],
      "stateMutability": "view",
      "type": "function",
      "constant": true
    },
    {
      "inputs": [
        {
          "internalType": "address",
          "name": "_post",
          "type": "address"
        }
      ],
      "name": "buyPost",
      "outputs": [],
      "stateMutability": "payable",
      "type": "function",
      "payable": true
    },
    {
      "inputs": [
        {
          "internalType": "address",
          "name": "_post",
          "type": "address"
        }
      ],
      "name": "isPostOwner",
      "outputs": [
        {
          "internalType": "bool",
          "name": "",
          "type": "bool"
        }
      ],
      "stateMutability": "view",
      "type": "function",
      "constant": true
    },
    {
      "inputs": [
        {
          "internalType": "address",
          "name": "_user",
          "type": "address"
        }
      ],
      "name": "follow",
      "outputs": [],
      "stateMutability": "nonpayable",
      "type": "function"
    },
    {
      "inputs": [],
      "name": "getFollowingCount",
      "outputs": [
        {
          "internalType": "uint256",
          "name": "",
          "type": "uint256"
        }
      ],
      "stateMutability": "view",
      "type": "function",
      "constant": true
    },
    {
      "inputs": [
        {
          "internalType": "address",
          "name": "_post",
          "type": "address"
        }
      ],
      "name": "removePost",
      "outputs": [],
      "stateMutability": "nonpayable",
      "type": "function"
    }
  ],
  "bytecode": "0x60806040523480156200001157600080fd5b50604051620042f5380380620042f58339818101604052810190620000379190620002e3565b8260009081620000489190620005c8565b5081600190816200005a9190620005c8565b5033600260006101000a81548173ffffffffffffffffffffffffffffffffffffffff021916908373ffffffffffffffffffffffffffffffffffffffff16021790555080600660006101000a81548167ffffffffffffffff021916908360070b67ffffffffffffffff16021790555060006005819055507f0b0376a109cbb578b709f85f6a7befcdac3ac1ab251c99ede87f30c9572ac4d330604051620001019190620006f4565b60405180910390a150505062000711565b6000604051905090565b600080fd5b600080fd5b600080fd5b600080fd5b6000601f19601f8301169050919050565b7f4e487b7100000000000000000000000000000000000000000000000000000000600052604160045260246000fd5b6200017b8262000130565b810181811067ffffffffffffffff821117156200019d576200019c62000141565b5b80604052505050565b6000620001b262000112565b9050620001c0828262000170565b919050565b600067ffffffffffffffff821115620001e357620001e262000141565b5b620001ee8262000130565b9050602081019050919050565b60005b838110156200021b578082015181840152602081019050620001fe565b60008484015250505050565b60006200023e6200023884620001c5565b620001a6565b9050828152602081018484840111156200025d576200025c6200012b565b5b6200026a848285620001fb565b509392505050565b600082601f8301126200028a576200028962000126565b5b81516200029c84826020860162000227565b91505092915050565b60008160070b9050919050565b620002bd81620002a5565b8114620002c957600080fd5b50565b600081519050620002dd81620002b2565b92915050565b600080600060608486031215620002ff57620002fe6200011c565b5b600084015167ffffffffffffffff81111562000320576200031f62000121565b5b6200032e8682870162000272565b935050602084015167ffffffffffffffff81111562000352576200035162000121565b5b620003608682870162000272565b92505060406200037386828701620002cc565b9150509250925092565b600081519050919050565b7f4e487b7100000000000000000000000000000000000000000000000000000000600052602260045260246000fd5b60006002820490506001821680620003d057607f821691505b602082108103620003e657620003e562000388565b5b50919050565b60008190508160005260206000209050919050565b60006020601f8301049050919050565b600082821b905092915050565b600060088302620004507fffffffffffffffffffffffffffffffffffffffffffffffffffffffffffffffff8262000411565b6200045c868362000411565b95508019841693508086168417925050509392505050565b6000819050919050565b6000819050919050565b6000620004a9620004a36200049d8462000474565b6200047e565b62000474565b9050919050565b6000819050919050565b620004c58362000488565b620004dd620004d482620004b0565b8484546200041e565b825550505050565b600090565b620004f4620004e5565b62000501818484620004ba565b505050565b5b8181101562000529576200051d600082620004ea565b60018101905062000507565b5050565b601f82111562000578576200054281620003ec565b6200054d8462000401565b810160208510156200055d578190505b620005756200056c8562000401565b83018262000506565b50505b505050565b600082821c905092915050565b60006200059d600019846008026200057d565b1980831691505092915050565b6000620005b883836200058a565b9150826002028217905092915050565b620005d3826200037d565b67ffffffffffffffff811115620005ef57620005ee62000141565b5b620005fb8254620003b7565b620006088282856200052d565b600060209050601f8311600181146200064057600084156200062b578287015190505b620006378582620005aa565b865550620006a7565b601f1984166200065086620003ec565b60005b828110156200067a5784890151825560018201915060208501945060208101905062000653565b868310156200069a578489015162000696601f8916826200058a565b8355505b6001600288020188555050505b505050505050565b600073ffffffffffffffffffffffffffffffffffffffff82169050919050565b6000620006dc82620006af565b9050919050565b620006ee81620006cf565b82525050565b60006020820190506200070b6000830184620006e3565b92915050565b613bd480620007216000396000f3fe608060405260043610620001165760003560e01c80638628d0e211620000a3578063d091ec31116200006d578063d091ec31146200035f578063e289008e146200038d578063f06099af14620003bd578063f2fde38b14620003eb578063fc7966ff14620004195762000116565b80638628d0e2146200029b5780638da5cb5b14620002df578063a035b1fe146200030f578063b4960ce5146200033f5762000116565b80634dbf27cc11620000e55780634dbf27cc14620001cb57806374a5a41b14620001f95780637e79e8ba146200023d57806384da92a7146200026d5762000116565b806306fdde03146200011b5780630b1e7f83146200014b5780632f76ca39146200018f5780634b10fe1514620001bf575b600080fd5b3480156200012857600080fd5b50620001336200045d565b60405162000142919062001272565b60405180910390f35b3480156200015857600080fd5b50620001776004803603810190620001719190620012e5565b620004f3565b6040516200018691906200135c565b60405180910390f35b3480156200019c57600080fd5b50620001a762000533565b604051620001b691906200138a565b60405180910390f35b620001c96200053d565b005b348015620001d857600080fd5b50620001f76004803603810190620001f19190620013d8565b620006ab565b005b3480156200020657600080fd5b506200022560048036038101906200021f9190620013d8565b620007ec565b60405162000234919062001427565b60405180910390f35b3480156200024a57600080fd5b50620002556200080c565b60405162000264919062001272565b60405180910390f35b3480156200027a57600080fd5b5062000299600480360381019062000293919062001595565b62000939565b005b348015620002a857600080fd5b50620002c76004803603810190620002c1919062001624565b62000a1b565b604051620002d691906200135c565b60405180910390f35b348015620002ec57600080fd5b50620002f762000b9a565b604051620003069190620016e3565b60405180910390f35b3480156200031c57600080fd5b506200032762000bc0565b60405162000336919062001711565b60405180910390f35b6200035d6004803603810190620003579190620013d8565b62000bd3565b005b3480156200036c57600080fd5b506200038b6004803603810190620003859190620013d8565b62000ce8565b005b3480156200039a57600080fd5b50620003a562000ed1565b604051620003b491906200138a565b60405180910390f35b348015620003ca57600080fd5b50620003e96004803603810190620003e3919062001595565b62000ede565b005b348015620003f857600080fd5b50620004176004803603810190620004119190620013d8565b62000fc0565b005b3480156200042657600080fd5b506200044560048036038101906200043f9190620013d8565b6200111c565b60405162000454919062001427565b60405180910390f35b600080546200046c906200175d565b80601f01602080910402602001604051908101604052809291908181526020018280546200049a906200175d565b8015620004eb5780601f10620004bf57610100808354040283529160200191620004eb565b820191906000526020600020905b815481529060010190602001808311620004cd57829003601f168201915b505050505081565b600381815481106200050457600080fd5b906000526020600020016000915054906101000a900473ffffffffffffffffffffffffffffffffffffffff1681565b6000600554905090565b600660009054906101000a900460070b67ffffffffffffffff1634146200059b576040517f08c379a0000000000000000000000000000000000000000000000000000000008152600401620005929062001808565b60405180910390fd5b6000600260009054906101000a900473ffffffffffffffffffffffffffffffffffffffff16905033600260006101000a81548173ffffffffffffffffffffffffffffffffffffffff021916908373ffffffffffffffffffffffffffffffffffffffff1602179055508073ffffffffffffffffffffffffffffffffffffffff166108fc349081150290604051600060405180830381858888f193505050501580156200064a573d6000803e3d6000fd5b507f8be0079c531659141344cd1fd0a4f28419497f9722a3daafe3b4186f6b6457e081600260009054906101000a900473ffffffffffffffffffffffffffffffffffffffff16604051620006a092919062001895565b60405180910390a150565b600260009054906101000a900473ffffffffffffffffffffffffffffffffffffffff1673ffffffffffffffffffffffffffffffffffffffff163373ffffffffffffffffffffffffffffffffffffffff16146200073e576040517f08c379a0000000000000000000000000000000000000000000000000000000008152600401620007359062001938565b60405180910390fd5b6001600460008373ffffffffffffffffffffffffffffffffffffffff1673ffffffffffffffffffffffffffffffffffffffff16815260200190815260200160002060006101000a81548160ff02191690831515021790555060056000815480929190620007ab9062001989565b91905055507f4cc7d9539ce01437cdeb528a3129c5cda0d65929048a1f9942d9dae632e7037081604051620007e191906200135c565b60405180910390a150565b60046020528060005260406000206000915054906101000a900460ff1681565b6060600260009054906101000a900473ffffffffffffffffffffffffffffffffffffffff1673ffffffffffffffffffffffffffffffffffffffff163373ffffffffffffffffffffffffffffffffffffffff1614620008a1576040517f08c379a0000000000000000000000000000000000000000000000000000000008152600401620008989062001a4c565b60405180910390fd5b60018054620008b0906200175d565b80601f0160208091040260200160405190810160405280929190818152602001828054620008de906200175d565b80156200092f5780601f1062000903576101008083540402835291602001916200092f565b820191906000526020600020905b8154815290600101906020018083116200091157829003601f168201915b5050505050905090565b600260009054906101000a900473ffffffffffffffffffffffffffffffffffffffff1673ffffffffffffffffffffffffffffffffffffffff163373ffffffffffffffffffffffffffffffffffffffff1614620009cc576040517f08c379a0000000000000000000000000000000000000000000000000000000008152600401620009c39062001ae4565b60405180910390fd5b8060009081620009dd919062001cce565b507f9f7688a97f1ac51fe03bac18af18d6810f9f11f0db08c59b1938a9ac825ef744600060405162000a10919062001e45565b60405180910390a150565b6000600260009054906101000a900473ffffffffffffffffffffffffffffffffffffffff1673ffffffffffffffffffffffffffffffffffffffff163373ffffffffffffffffffffffffffffffffffffffff161462000ab0576040517f08c379a000000000000000000000000000000000000000000000000000000000815260040162000aa79062001edf565b60405180910390fd5b60008484843060405162000ac490620011ca565b62000ad3949392919062001f01565b604051809103906000f08015801562000af0573d6000803e3d6000fd5b5090506003819080600181540180825580915050600190039060005260206000200160009091909190916101000a81548173ffffffffffffffffffffffffffffffffffffffff021916908373ffffffffffffffffffffffffffffffffffffffff1602179055507f834ca3a72f02237ff99ee1186fd5a3169c0dfb014a0f2f453b12305ee456bb818160405162000b8791906200135c565b60405180910390a1809150509392505050565b600260009054906101000a900473ffffffffffffffffffffffffffffffffffffffff1681565b600660009054906101000a900460070b81565b60008190508073ffffffffffffffffffffffffffffffffffffffff1663f088d54734306040518363ffffffff1660e01b815260040162000c1491906200135c565b6000604051808303818588803b15801562000c2e57600080fd5b505af115801562000c43573d6000803e3d6000fd5b50505050506003829080600181540180825580915050600190039060005260206000200160009091909190916101000a81548173ffffffffffffffffffffffffffffffffffffffff021916908373ffffffffffffffffffffffffffffffffffffffff1602179055507f7354c682888c02744b7d846ebe1396fbcb474420919a5bf59a2a55ff1b934a998260405162000cdc91906200135c565b60405180910390a15050565b60005b60038054905081101562000ecd578173ffffffffffffffffffffffffffffffffffffffff166003828154811062000d275762000d2662001f5c565b5b9060005260206000200160009054906101000a900473ffffffffffffffffffffffffffffffffffffffff1673ffffffffffffffffffffffffffffffffffffffff160362000eb75762000d79826200111c565b62000eb6576003600160038054905062000d94919062001f8b565b8154811062000da85762000da762001f5c565b5b9060005260206000200160009054906101000a900473ffffffffffffffffffffffffffffffffffffffff166003828154811062000dea5762000de962001f5c565b5b9060005260206000200160006101000a81548173ffffffffffffffffffffffffffffffffffffffff021916908373ffffffffffffffffffffffffffffffffffffffff160217905550600380548062000e475762000e4662001fc6565b5b6001900381819060005260206000200160006101000a81549073ffffffffffffffffffffffffffffffffffffffff021916905590557f7354c682888c02744b7d846ebe1396fbcb474420919a5bf59a2a55ff1b934a998260405162000ead91906200135c565b60405180910390a15b5b808062000ec49062001989565b91505062000ceb565b5050565b6000600380549050905090565b600260009054906101000a900473ffffffffffffffffffffffffffffffffffffffff1673ffffffffffffffffffffffffffffffffffffffff163373ffffffffffffffffffffffffffffffffffffffff161462000f71576040517f08c379a000000000000000000000000000000000000000000000000000000000815260040162000f68906200206b565b60405180910390fd5b806001908162000f82919062001cce565b507f0556871f901790e1ea1d760c89698406d95c0085b6e0d7b89581ee078ccac5f0600160405162000fb5919062001e45565b60405180910390a150565b600260009054906101000a900473ffffffffffffffffffffffffffffffffffffffff1673ffffffffffffffffffffffffffffffffffffffff163373ffffffffffffffffffffffffffffffffffffffff161462001053576040517f08c379a00000000000000000000000000000000000000000000000000000000081526004016200104a9062002103565b60405180910390fd5b6000600260009054906101000a900473ffffffffffffffffffffffffffffffffffffffff16905081600260006101000a81548173ffffffffffffffffffffffffffffffffffffffff021916908373ffffffffffffffffffffffffffffffffffffffff1602179055507f8be0079c531659141344cd1fd0a4f28419497f9722a3daafe3b4186f6b6457e081600260009054906101000a900473ffffffffffffffffffffffffffffffffffffffff166040516200111092919062001895565b60405180910390a15050565b6000808290503073ffffffffffffffffffffffffffffffffffffffff168173ffffffffffffffffffffffffffffffffffffffff1663893d20e86040518163ffffffff1660e01b8152600401602060405180830381865afa15801562001185573d6000803e3d6000fd5b505050506040513d601f19601f82011682018060405250810190620011ab91906200213c565b73ffffffffffffffffffffffffffffffffffffffff1614915050919050565b611a30806200216f83390190565b600081519050919050565b600082825260208201905092915050565b60005b8381101562001214578082015181840152602081019050620011f7565b60008484015250505050565b6000601f19601f8301169050919050565b60006200123e82620011d8565b6200124a8185620011e3565b93506200125c818560208601620011f4565b620012678162001220565b840191505092915050565b600060208201905081810360008301526200128e818462001231565b905092915050565b6000604051905090565b600080fd5b600080fd5b6000819050919050565b620012bf81620012aa565b8114620012cb57600080fd5b50565b600081359050620012df81620012b4565b92915050565b600060208284031215620012fe57620012fd620012a0565b5b60006200130e84828501620012ce565b91505092915050565b600073ffffffffffffffffffffffffffffffffffffffff82169050919050565b6000620013448262001317565b9050919050565b620013568162001337565b82525050565b60006020820190506200137360008301846200134b565b92915050565b6200138481620012aa565b82525050565b6000602082019050620013a1600083018462001379565b92915050565b620013b28162001337565b8114620013be57600080fd5b50565b600081359050620013d281620013a7565b92915050565b600060208284031215620013f157620013f0620012a0565b5b60006200140184828501620013c1565b91505092915050565b60008115159050919050565b62001421816200140a565b82525050565b60006020820190506200143e600083018462001416565b92915050565b600080fd5b600080fd5b7f4e487b7100000000000000000000000000000000000000000000000000000000600052604160045260246000fd5b620014888262001220565b810181811067ffffffffffffffff82111715620014aa57620014a96200144e565b5b80604052505050565b6000620014bf62001296565b9050620014cd82826200147d565b919050565b600067ffffffffffffffff821115620014f057620014ef6200144e565b5b620014fb8262001220565b9050602081019050919050565b82818337600083830152505050565b60006200152e6200152884620014d2565b620014b3565b9050828152602081018484840111156200154d576200154c62001449565b5b6200155a84828562001508565b509392505050565b600082601f8301126200157a576200157962001444565b5b81356200158c84826020860162001517565b91505092915050565b600060208284031215620015ae57620015ad620012a0565b5b600082013567ffffffffffffffff811115620015cf57620015ce620012a5565b5b620015dd8482850162001562565b91505092915050565b60008160070b9050919050565b620015fe81620015e6565b81146200160a57600080fd5b50565b6000813590506200161e81620015f3565b92915050565b60008060006060848603121562001640576200163f620012a0565b5b600084013567ffffffffffffffff811115620016615762001660620012a5565b5b6200166f8682870162001562565b935050602084013567ffffffffffffffff811115620016935762001692620012a5565b5b620016a18682870162001562565b9250506040620016b4868287016200160d565b9150509250925092565b6000620016cb8262001317565b9050919050565b620016dd81620016be565b82525050565b6000602082019050620016fa6000830184620016d2565b92915050565b6200170b81620015e6565b82525050565b600060208201905062001728600083018462001700565b92915050565b7f4e487b7100000000000000000000000000000000000000000000000000000000600052602260045260246000fd5b600060028204905060018216806200177657607f821691505b6020821081036200178c576200178b6200172e565b5b50919050565b7f596f75206d757374207061792074686520707269636520746f2062757920746860008201527f6973207573657200000000000000000000000000000000000000000000000000602082015250565b6000620017f0602783620011e3565b9150620017fd8262001792565b604082019050919050565b600060208201905081810360008301526200182381620017e1565b9050919050565b6000819050919050565b6000620018556200184f620018498462001317565b6200182a565b62001317565b9050919050565b6000620018698262001834565b9050919050565b60006200187d826200185c565b9050919050565b6200188f8162001870565b82525050565b6000604082019050620018ac60008301856200134b565b620018bb602083018462001884565b9392505050565b7f596f75206d75737420626520746865206f776e6572206f66207468697320757360008201527f657220746f20666f6c6c6f7720616e6f74686572207573657200000000000000602082015250565b600062001920603983620011e3565b91506200192d82620018c2565b604082019050919050565b60006020820190508181036000830152620019538162001911565b9050919050565b7f4e487b7100000000000000000000000000000000000000000000000000000000600052601160045260246000fd5b60006200199682620012aa565b91507fffffffffffffffffffffffffffffffffffffffffffffffffffffffffffffffff8203620019cb57620019ca6200195a565b5b600182019050919050565b7f596f75206d75737420626520746865206f776e6572206f66207468697320757360008201527f657220746f2073686f772074686520656d61696c000000000000000000000000602082015250565b600062001a34603483620011e3565b915062001a4182620019d6565b604082019050919050565b6000602082019050818103600083015262001a678162001a25565b9050919050565b7f596f75206d75737420626520746865206f776e6572206f66207468697320757360008201527f657220746f2075706461746520746865206e616d650000000000000000000000602082015250565b600062001acc603583620011e3565b915062001ad98262001a6e565b604082019050919050565b6000602082019050818103600083015262001aff8162001abd565b9050919050565b60008190508160005260206000209050919050565b60006020601f8301049050919050565b600082821b905092915050565b60006008830262001b6a7fffffffffffffffffffffffffffffffffffffffffffffffffffffffffffffffff8262001b2b565b62001b76868362001b2b565b95508019841693508086168417925050509392505050565b600062001baf62001ba962001ba384620012aa565b6200182a565b620012aa565b9050919050565b6000819050919050565b62001bcb8362001b8e565b62001be362001bda8262001bb6565b84845462001b38565b825550505050565b600090565b62001bfa62001beb565b62001c0781848462001bc0565b505050565b5b8181101562001c2f5762001c2360008262001bf0565b60018101905062001c0d565b5050565b601f82111562001c7e5762001c488162001b06565b62001c538462001b1b565b8101602085101562001c63578190505b62001c7b62001c728562001b1b565b83018262001c0c565b50505b505050565b600082821c905092915050565b600062001ca36000198460080262001c83565b1980831691505092915050565b600062001cbe838362001c90565b9150826002028217905092915050565b62001cd982620011d8565b67ffffffffffffffff81111562001cf55762001cf46200144e565b5b62001d0182546200175d565b62001d0e82828562001c33565b600060209050601f83116001811462001d46576000841562001d31578287015190505b62001d3d858262001cb0565b86555062001dad565b601f19841662001d568662001b06565b60005b8281101562001d805784890151825560018201915060208501945060208101905062001d59565b8683101562001da0578489015162001d9c601f89168262001c90565b8355505b6001600288020188555050505b505050505050565b6000815462001dc4816200175d565b62001dd08186620011e3565b9450600182166000811462001dee576001811462001e055762001e3c565b60ff19831686528115156020028601935062001e3c565b62001e108562001b06565b60005b8381101562001e345781548189015260018201915060208101905062001e13565b808801955050505b50505092915050565b6000602082019050818103600083015262001e61818462001db5565b905092915050565b7f596f75206d75737420626520746865206f776e6572206f66207468697320757360008201527f657220746f20637265617465206120706f737400000000000000000000000000602082015250565b600062001ec7603383620011e3565b915062001ed48262001e69565b604082019050919050565b6000602082019050818103600083015262001efa8162001eb8565b9050919050565b6000608082019050818103600083015262001f1d818762001231565b9050818103602083015262001f33818662001231565b905062001f44604083018562001700565b62001f5360608301846200134b565b95945050505050565b7f4e487b7100000000000000000000000000000000000000000000000000000000600052603260045260246000fd5b600062001f9882620012aa565b915062001fa583620012aa565b925082820390508181111562001fc05762001fbf6200195a565b5b92915050565b7f4e487b7100000000000000000000000000000000000000000000000000000000600052603160045260246000fd5b7f596f75206d75737420626520746865206f776e6572206f66207468697320757360008201527f657220746f207570646174652074686520656d61696c00000000000000000000602082015250565b600062002053603683620011e3565b9150620020608262001ff5565b604082019050919050565b60006020820190508181036000830152620020868162002044565b9050919050565b7f596f75206d75737420626520746865206f776e6572206f66207468697320757360008201527f657220746f207472616e73666572206f776e6572736869700000000000000000602082015250565b6000620020eb603883620011e3565b9150620020f8826200208d565b604082019050919050565b600060208201905081810360008301526200211e81620020dc565b9050919050565b6000815190506200213681620013a7565b92915050565b600060208284031215620021555762002154620012a0565b5b6000620021658482850162002125565b9150509291505056fe60806040523480156200001157600080fd5b5060405162001a3038038062001a30833981810160405281019062000037919062000391565b83600090816200004891906200068c565b5082600190816200005a91906200068c565b5080600260006101000a81548173ffffffffffffffffffffffffffffffffffffffff021916908373ffffffffffffffffffffffffffffffffffffffff16021790555080600360006101000a81548173ffffffffffffffffffffffffffffffffffffffff021916908373ffffffffffffffffffffffffffffffffffffffff1602179055504260048190555081600560006101000a81548167ffffffffffffffff021916908360070b67ffffffffffffffff16021790555060006007819055507fb28b103e6296194f6aecace93990102a06a5ae0720dc23aaf51589d563d52dde3060405162000149919062000784565b60405180910390a150505050620007a1565b6000604051905090565b600080fd5b600080fd5b600080fd5b600080fd5b6000601f19601f8301169050919050565b7f4e487b7100000000000000000000000000000000000000000000000000000000600052604160045260246000fd5b620001c48262000179565b810181811067ffffffffffffffff82111715620001e657620001e56200018a565b5b80604052505050565b6000620001fb6200015b565b9050620002098282620001b9565b919050565b600067ffffffffffffffff8211156200022c576200022b6200018a565b5b620002378262000179565b9050602081019050919050565b60005b838110156200026457808201518184015260208101905062000247565b60008484015250505050565b60006200028762000281846200020e565b620001ef565b905082815260208101848484011115620002a657620002a562000174565b5b620002b384828562000244565b509392505050565b600082601f830112620002d357620002d26200016f565b5b8151620002e584826020860162000270565b91505092915050565b60008160070b9050919050565b6200030681620002ee565b81146200031257600080fd5b50565b6000815190506200032681620002fb565b92915050565b600073ffffffffffffffffffffffffffffffffffffffff82169050919050565b600062000359826200032c565b9050919050565b6200036b816200034c565b81146200037757600080fd5b50565b6000815190506200038b8162000360565b92915050565b60008060008060808587031215620003ae57620003ad62000165565b5b600085015167ffffffffffffffff811115620003cf57620003ce6200016a565b5b620003dd87828801620002bb565b945050602085015167ffffffffffffffff8111156200040157620004006200016a565b5b6200040f87828801620002bb565b9350506040620004228782880162000315565b925050606062000435878288016200037a565b91505092959194509250565b600081519050919050565b7f4e487b7100000000000000000000000000000000000000000000000000000000600052602260045260246000fd5b600060028204905060018216806200049457607f821691505b602082108103620004aa57620004a96200044c565b5b50919050565b60008190508160005260206000209050919050565b60006020601f8301049050919050565b600082821b905092915050565b600060088302620005147fffffffffffffffffffffffffffffffffffffffffffffffffffffffffffffffff82620004d5565b620005208683620004d5565b95508019841693508086168417925050509392505050565b6000819050919050565b6000819050919050565b60006200056d62000567620005618462000538565b62000542565b62000538565b9050919050565b6000819050919050565b62000589836200054c565b620005a1620005988262000574565b848454620004e2565b825550505050565b600090565b620005b8620005a9565b620005c58184846200057e565b505050565b5b81811015620005ed57620005e1600082620005ae565b600181019050620005cb565b5050565b601f8211156200063c576200060681620004b0565b6200061184620004c5565b8101602085101562000621578190505b620006396200063085620004c5565b830182620005ca565b50505b505050565b600082821c905092915050565b6000620006616000198460080262000641565b1980831691505092915050565b60006200067c83836200064e565b9150826002028217905092915050565b620006978262000441565b67ffffffffffffffff811115620006b357620006b26200018a565b5b620006bf82546200047b565b620006cc828285620005f1565b600060209050601f831160018114620007045760008415620006ef578287015190505b620006fb85826200066e565b8655506200076b565b601f1984166200071486620004b0565b60005b828110156200073e5784890151825560018201915060208501945060208101905062000717565b868310156200075e57848901516200075a601f8916826200064e565b8355505b6001600288020188555050505b505050505050565b6200077e816200034c565b82525050565b60006020820190506200079b600083018462000773565b92915050565b61127f80620007b16000396000f3fe6080604052600436106100a75760003560e01c8063a035b1fe11610064578063a035b1fe146101c0578063a6c3e6b9146101eb578063b429563a14610216578063cf09e0d01461023f578063e465c4651461026a578063f088d54714610293576100a7565b80630353701a146100ac5780634a79d50c146100d7578063737d368514610102578063893d20e81461013f5780638a4d5a671461016a5780638da5cb5b14610195575b600080fd5b3480156100b857600080fd5b506100c16102af565b6040516100ce9190610bca565b60405180910390f35b3480156100e357600080fd5b506100ec6102b5565b6040516100f99190610c75565b60405180910390f35b34801561010e57600080fd5b5061012960048036038101906101249190610cfa565b610343565b6040516101369190610d42565b60405180910390f35b34801561014b57600080fd5b50610154610363565b6040516101619190610d6c565b60405180910390f35b34801561017657600080fd5b5061017f61038d565b60405161018c9190610c75565b60405180910390f35b3480156101a157600080fd5b506101aa61041b565b6040516101b79190610d6c565b60405180910390f35b3480156101cc57600080fd5b506101d5610441565b6040516101e29190610da3565b60405180910390f35b3480156101f757600080fd5b50610200610454565b60405161020d9190610d6c565b60405180910390f35b34801561022257600080fd5b5061023d60048036038101906102389190610dea565b61047a565b005b34801561024b57600080fd5b50610254610744565b6040516102619190610bca565b60405180910390f35b34801561027657600080fd5b50610291600480360381019061028c9190610cfa565b61074a565b005b6102ad60048036038101906102a89190610cfa565b610969565b005b60075481565b600080546102c290610e59565b80601f01602080910402602001604051908101604052809291908181526020018280546102ee90610e59565b801561033b5780601f106103105761010080835404028352916020019161033b565b820191906000526020600020905b81548152906001019060200180831161031e57829003601f168201915b505050505081565b60066020528060005260406000206000915054906101000a900460ff1681565b6000600360009054906101000a900473ffffffffffffffffffffffffffffffffffffffff16905090565b6001805461039a90610e59565b80601f01602080910402602001604051908101604052809291908181526020018280546103c690610e59565b80156104135780601f106103e857610100808354040283529160200191610413565b820191906000526020600020905b8154815290600101906020018083116103f657829003601f168201915b505050505081565b600360009054906101000a900473ffffffffffffffffffffffffffffffffffffffff1681565b600560009054906101000a900460070b81565b600260009054906101000a900473ffffffffffffffffffffffffffffffffffffffff1681565b6000600360009054906101000a900473ffffffffffffffffffffffffffffffffffffffff16905060008290503373ffffffffffffffffffffffffffffffffffffffff168173ffffffffffffffffffffffffffffffffffffffff16638da5cb5b6040518163ffffffff1660e01b8152600401602060405180830381865afa158015610508573d6000803e3d6000fd5b505050506040513d601f19601f8201168201806040525081019061052c9190610ec8565b73ffffffffffffffffffffffffffffffffffffffff1614610582576040517f08c379a000000000000000000000000000000000000000000000000000000000815260040161057990610f67565b60405180910390fd5b8073ffffffffffffffffffffffffffffffffffffffff16638da5cb5b6040518163ffffffff1660e01b8152600401602060405180830381865afa1580156105cd573d6000803e3d6000fd5b505050506040513d601f19601f820116820180604052508101906105f19190610ec8565b73ffffffffffffffffffffffffffffffffffffffff168273ffffffffffffffffffffffffffffffffffffffff16638da5cb5b6040518163ffffffff1660e01b8152600401602060405180830381865afa158015610652573d6000803e3d6000fd5b505050506040513d601f19601f820116820180604052508101906106769190610ec8565b73ffffffffffffffffffffffffffffffffffffffff16146106cc576040517f08c379a00000000000000000000000000000000000000000000000000000000081526004016106c390610ff9565b60405180910390fd5b83600560006101000a81548167ffffffffffffffff021916908360070b67ffffffffffffffff1602179055507f7ecdea6a500e78fd97ea5e85586b7203e86ba29a0abacb52eb998c4228cb0e52600560009054906101000a900460070b6040516107369190610da3565b60405180910390a150505050565b60045481565b60008190503373ffffffffffffffffffffffffffffffffffffffff168173ffffffffffffffffffffffffffffffffffffffff16638da5cb5b6040518163ffffffff1660e01b8152600401602060405180830381865afa1580156107b1573d6000803e3d6000fd5b505050506040513d601f19601f820116820180604052508101906107d59190610ec8565b73ffffffffffffffffffffffffffffffffffffffff161461082b576040517f08c379a00000000000000000000000000000000000000000000000000000000081526004016108229061108b565b60405180910390fd5b60001515600660008473ffffffffffffffffffffffffffffffffffffffff1673ffffffffffffffffffffffffffffffffffffffff16815260200190815260200160002060009054906101000a900460ff161515146108be576040517f08c379a00000000000000000000000000000000000000000000000000000000081526004016108b5906110f7565b60405180910390fd5b6001600660008473ffffffffffffffffffffffffffffffffffffffff1673ffffffffffffffffffffffffffffffffffffffff16815260200190815260200160002060006101000a81548160ff0219169083151502179055506007600081548092919061092990611146565b91905055507f44ac6e607615fb694244ba3334a814d86fb64337d5961fd91531260efe10a21d8260405161095d9190610d6c565b60405180910390a15050565b600560009054906101000a900460070b67ffffffffffffffff1634146109c4576040517f08c379a00000000000000000000000000000000000000000000000000000000081526004016109bb90611200565b60405180910390fd5b6000600360009054906101000a900473ffffffffffffffffffffffffffffffffffffffff16905081600360006101000a81548173ffffffffffffffffffffffffffffffffffffffff021916908373ffffffffffffffffffffffffffffffffffffffff1602179055508073ffffffffffffffffffffffffffffffffffffffff16638da5cb5b6040518163ffffffff1660e01b8152600401602060405180830381865afa158015610a77573d6000803e3d6000fd5b505050506040513d601f19601f82011682018060405250810190610a9b9190610ec8565b73ffffffffffffffffffffffffffffffffffffffff166108fc349081150290604051600060405180830381858888f19350505050158015610ae0573d6000803e3d6000fd5b507f0384899bd253d83b23daa4d29aaa2efe0563d1132b43101e9ad667235aeb951b81600360009054906101000a900473ffffffffffffffffffffffffffffffffffffffff16604051610b34929190611220565b60405180910390a160008190508073ffffffffffffffffffffffffffffffffffffffff1663d091ec31306040518263ffffffff1660e01b8152600401610b7a9190610d6c565b600060405180830381600087803b158015610b9457600080fd5b505af1158015610ba8573d6000803e3d6000fd5b50505050505050565b6000819050919050565b610bc481610bb1565b82525050565b6000602082019050610bdf6000830184610bbb565b92915050565b600081519050919050565b600082825260208201905092915050565b60005b83811015610c1f578082015181840152602081019050610c04565b60008484015250505050565b6000601f19601f8301169050919050565b6000610c4782610be5565b610c518185610bf0565b9350610c61818560208601610c01565b610c6a81610c2b565b840191505092915050565b60006020820190508181036000830152610c8f8184610c3c565b905092915050565b600080fd5b600073ffffffffffffffffffffffffffffffffffffffff82169050919050565b6000610cc782610c9c565b9050919050565b610cd781610cbc565b8114610ce257600080fd5b50565b600081359050610cf481610cce565b92915050565b600060208284031215610d1057610d0f610c97565b5b6000610d1e84828501610ce5565b91505092915050565b60008115159050919050565b610d3c81610d27565b82525050565b6000602082019050610d576000830184610d33565b92915050565b610d6681610cbc565b82525050565b6000602082019050610d816000830184610d5d565b92915050565b60008160070b9050919050565b610d9d81610d87565b82525050565b6000602082019050610db86000830184610d94565b92915050565b610dc781610d87565b8114610dd257600080fd5b50565b600081359050610de481610dbe565b92915050565b60008060408385031215610e0157610e00610c97565b5b6000610e0f85828601610dd5565b9250506020610e2085828601610ce5565b9150509250929050565b7f4e487b7100000000000000000000000000000000000000000000000000000000600052602260045260246000fd5b60006002820490506001821680610e7157607f821691505b602082108103610e8457610e83610e2a565b5b50919050565b6000610e9582610c9c565b9050919050565b610ea581610e8a565b8114610eb057600080fd5b50565b600081519050610ec281610e9c565b92915050565b600060208284031215610ede57610edd610c97565b5b6000610eec84828501610eb3565b91505092915050565b7f596f75206d75737420626520746865206f776e6572206f66207468697320757360008201527f657220746f206368616e67652074686520707269636500000000000000000000602082015250565b6000610f51603683610bf0565b9150610f5c82610ef5565b604082019050919050565b60006020820190508181036000830152610f8081610f44565b9050919050565b7f596f75206d75737420626520746865206f776e6572206f66207468697320706f60008201527f737420746f206368616e67652074686520707269636500000000000000000000602082015250565b6000610fe3603683610bf0565b9150610fee82610f87565b604082019050919050565b6000602082019050818103600083015261101281610fd6565b9050919050565b7f596f75206d75737420626520746865206f776e6572206f66207468652075736560008201527f7220746f206c696b65207468697320706f737400000000000000000000000000602082015250565b6000611075603383610bf0565b915061108082611019565b604082019050919050565b600060208201905081810360008301526110a481611068565b9050919050565b7f596f7520616c7265616479206c696b6564207468697320706f73740000000000600082015250565b60006110e1601b83610bf0565b91506110ec826110ab565b602082019050919050565b60006020820190508181036000830152611110816110d4565b9050919050565b7f4e487b7100000000000000000000000000000000000000000000000000000000600052601160045260246000fd5b600061115182610bb1565b91507fffffffffffffffffffffffffffffffffffffffffffffffffffffffffffffffff820361118357611182611117565b5b600182019050919050565b7f596f75206d757374207061792074686520707269636520746f2062757920746860008201527f697320706f737400000000000000000000000000000000000000000000000000602082015250565b60006111ea602783610bf0565b91506111f58261118e565b604082019050919050565b60006020820190508181036000830152611219816111dd565b9050919050565b60006040820190506112356000830185610d5d565b6112426020830184610d5d565b939250505056fea26469706673582212200dd9aed697f08eec9ecc3cf07fc24f95eb154a7376762336da8b73ef7cf51c1964736f6c63430008110033a2646970667358221220cf6ec95e6f6eaee757a5a686a231984969071a213c3e819bd4886592f3b99e0a64736f6c63430008110033",
  "immutableReferences": {},
  "source": "// SPDX-License-Identifier: UNLICENSED\n\npragma solidity >=0.7.0 <0.9.0;\n\nimport \"./IUser.sol\";\nimport \"./Post.sol\";\nimport \"./IPost.sol\";\n\ncontract User is IUser {\n    // user's name\n    string public name;\n    // user's address\n    string private email;\n    // user's address\n    address payable public owner;\n    // user's posts\n    address[] public posts;\n    // user's followers\n    mapping(address => bool) public following;\n    // user's followers count\n    uint256 followingCount;\n    // price of the user\n    int64 public price;\n\n    constructor(string memory _name, string memory _email, int64 _price) {\n        name = _name;\n        email = _email;\n        owner = payable(msg.sender);\n        price = _price;\n        followingCount = 0;\n        emit UserCreated(address(this));\n    }\n\n    // update user name\n    function updateName(string memory _name) public override {\n        require(msg.sender == owner, \"You must be the owner of this user to update the name\");\n        // update name\n        name = _name;\n        // emit event of name update\n        emit NameUpdated(name);\n    }\n\n    // update user email\n    function updateEmail(string memory _email) public override {\n        require(msg.sender == owner, \"You must be the owner of this user to update the email\");\n        // update email\n        email = _email;\n        // emit event of email update\n        emit EmailUpdated(email);\n    }\n\n    // get email\n    function getEmail() public view override returns (string memory) {\n        // return email if the user is the owner of the account\n        require(msg.sender == owner, \"You must be the owner of this user to show the email\");\n        return email;\n    }\n\n    // transfer ownership of the user\n    function transferOwnership(address _newOwner) public override {\n        require(msg.sender == owner, \"You must be the owner of this user to transfer ownership\");\n        address oldOwner = owner;\n        // transfer ownership\n        owner = payable(_newOwner);\n        // emit event of ownership change\n        emit OwnershipTransferred(oldOwner, owner);\n    }\n\n    // buy a user\n    function buyUser() public payable override {\n        require(msg.value == uint64(price), \"You must pay the price to buy this user\");\n\n        address oldOwner = owner;\n        // transfer ownership\n        owner = payable(msg.sender);\n        // transfer money\n        payable(oldOwner).transfer(msg.value);\n        // emit event of ownership change\n        emit OwnershipTransferred(oldOwner, owner);\n    }\n\n\n    // create a new post\n    function createPost(string memory _title, string memory _content, int64 _price) public override returns (address) {\n        require(msg.sender == owner, \"You must be the owner of this user to create a post\");\n        Post post = new Post(_title, _content, _price, address(this));\n        // add to users posts array\n        posts.push(address(post));\n        // emit event of post creation\n        emit PostCreatedFromUser(address(post));\n        return address(post);\n    }\n\n    // get posts length\n    function getPostsLength() public view override returns (uint256) {\n        return posts.length;\n    }\n\n    // buy a post\n    function buyPost(address _post) public payable override {\n        Post post = Post(_post);\n        // buy the post\n        post.buy{value: msg.value}(address(this));\n        // add to users posts array\n        posts.push(_post);\n        // emit event of post creation\n        emit PostSold(_post);\n    }\n\n    // detect if a post is owned by the user\n    function isPostOwner(address _post) public view override returns (bool) {\n        Post post = Post(_post);\n        return post.getOwner() == address(this);\n    }\n\n    // user follow another user\n    function follow(address _user) public override {\n        require(msg.sender == owner, \"You must be the owner of this user to follow another user\");\n        // add to following\n        following[_user] = true;\n        followingCount++;\n        // emit event of follow\n        emit Followed(_user);\n    }\n\n    // get user followers count\n    function getFollowingCount() public view override returns (uint256) {\n        return followingCount;\n    }\n\n    // remove a post from the user if not owned by the user\n    function removePost(address _post) public override {\n        for (uint i = 0; i < posts.length; i++) {\n            // find post in array\n            if (posts[i] == _post) {\n                if (!isPostOwner(_post)) {\n                    // remove post from array\n                    posts[i] = posts[posts.length - 1];\n                    posts.pop();\n                    // emit event of post removal\n                    emit PostSold(_post);\n                }\n            }\n        }\n    }\n}\n",
  "sourcePath": "/home/martin/perso/postandby/on-chain/contracts/User.sol",
  "compiler": {
    "name": "solc",
    "version": "0.8.17+commit.8df45f5f.Emscripten.clang"
  },
  "schemaVersion": "3.4.10",
  "updatedAt": "2022-10-13T16:18:26.405Z",
  "networkType": "ethereum",
  "devdoc": {
    "kind": "dev",
    "methods": {},
    "version": 1
  },
  "userdoc": {
    "kind": "user",
    "methods": {},
    "version": 1
  }
}