{
  "contractName": "User",
  "abi": [
    {
      "inputs": [
        {
          "internalType": "string",
          "name": "_name",
          "type": "string"
        },
        {
          "internalType": "string",
          "name": "_email",
          "type": "string"
        },
        {
          "internalType": "int64",
          "name": "_price",
          "type": "int64"
        }
      ],
      "stateMutability": "nonpayable",
      "type": "constructor"
    },
    {
      "anonymous": false,
      "inputs": [
        {
          "indexed": false,
          "internalType": "string",
          "name": "email",
          "type": "string"
        }
      ],
      "name": "EmailUpdated",
      "type": "event"
    },
    {
      "anonymous": false,
      "inputs": [
        {
          "indexed": false,
          "internalType": "address",
          "name": "user",
          "type": "address"
        }
      ],
      "name": "Followed",
      "type": "event"
    },
    {
      "anonymous": false,
      "inputs": [
        {
          "indexed": false,
          "internalType": "string",
          "name": "name",
          "type": "string"
        }
      ],
      "name": "NameUpdated",
      "type": "event"
    },
    {
      "anonymous": false,
      "inputs": [
        {
          "indexed": false,
          "internalType": "address",
          "name": "oldOwner",
          "type": "address"
        },
        {
          "indexed": false,
          "internalType": "address",
          "name": "newOwner",
          "type": "address"
        }
      ],
      "name": "OwnershipTransferred",
      "type": "event"
    },
    {
      "anonymous": false,
      "inputs": [
        {
          "indexed": false,
          "internalType": "address",
          "name": "post",
          "type": "address"
        }
      ],
      "name": "PostBuyFromUser",
      "type": "event"
    },
    {
      "anonymous": false,
      "inputs": [
        {
          "indexed": false,
          "internalType": "address",
          "name": "post",
          "type": "address"
        }
      ],
      "name": "PostCreatedFromUser",
      "type": "event"
    },
    {
      "anonymous": false,
      "inputs": [
        {
          "indexed": false,
          "internalType": "address",
          "name": "post",
          "type": "address"
        }
      ],
      "name": "PostSold",
      "type": "event"
    },
    {
      "anonymous": false,
      "inputs": [
        {
          "indexed": false,
          "internalType": "address",
          "name": "user",
          "type": "address"
        }
      ],
      "name": "UserBought",
      "type": "event"
    },
    {
      "anonymous": false,
      "inputs": [
        {
          "indexed": false,
          "internalType": "address",
          "name": "user",
          "type": "address"
        }
      ],
      "name": "UserCreated",
      "type": "event"
    },
    {
      "inputs": [
        {
          "internalType": "address",
          "name": "",
          "type": "address"
        }
      ],
      "name": "following",
      "outputs": [
        {
          "internalType": "bool",
          "name": "",
          "type": "bool"
        }
      ],
      "stateMutability": "view",
      "type": "function",
      "constant": true
    },
    {
      "inputs": [],
      "name": "name",
      "outputs": [
        {
          "internalType": "string",
          "name": "",
          "type": "string"
        }
      ],
      "stateMutability": "view",
      "type": "function",
      "constant": true
    },
    {
      "inputs": [],
      "name": "owner",
      "outputs": [
        {
          "internalType": "address payable",
          "name": "",
          "type": "address"
        }
      ],
      "stateMutability": "view",
      "type": "function",
      "constant": true
    },
    {
      "inputs": [],
      "name": "price",
      "outputs": [
        {
          "internalType": "int64",
          "name": "",
          "type": "int64"
        }
      ],
      "stateMutability": "view",
      "type": "function",
      "constant": true
    },
    {
      "inputs": [
        {
          "internalType": "string",
          "name": "_name",
          "type": "string"
        }
      ],
      "name": "updateName",
      "outputs": [],
      "stateMutability": "nonpayable",
      "type": "function"
    },
    {
      "inputs": [
        {
          "internalType": "string",
          "name": "_email",
          "type": "string"
        }
      ],
      "name": "updateEmail",
      "outputs": [],
      "stateMutability": "nonpayable",
      "type": "function"
    },
    {
      "inputs": [],
      "name": "getEmail",
      "outputs": [
        {
          "internalType": "string",
          "name": "",
          "type": "string"
        }
      ],
      "stateMutability": "view",
      "type": "function",
      "constant": true
    },
    {
      "inputs": [
        {
          "internalType": "address",
          "name": "_newOwner",
          "type": "address"
        }
      ],
      "name": "transferOwnership",
      "outputs": [],
      "stateMutability": "nonpayable",
      "type": "function"
    },
    {
      "inputs": [],
      "name": "buyUser",
      "outputs": [],
      "stateMutability": "payable",
      "type": "function",
      "payable": true
    },
    {
      "inputs": [
        {
          "internalType": "string",
          "name": "_title",
          "type": "string"
        },
        {
          "internalType": "string",
          "name": "_content",
          "type": "string"
        },
        {
          "internalType": "uint64",
          "name": "_price",
          "type": "uint64"
        }
      ],
      "name": "createPost",
      "outputs": [
        {
          "internalType": "address",
          "name": "",
          "type": "address"
        }
      ],
      "stateMutability": "nonpayable",
      "type": "function"
    },
    {
      "inputs": [
        {
          "internalType": "address",
          "name": "_post",
          "type": "address"
        }
      ],
      "name": "buyPost",
      "outputs": [],
      "stateMutability": "payable",
      "type": "function",
      "payable": true
    },
    {
      "inputs": [
        {
          "internalType": "address",
          "name": "_post",
          "type": "address"
        }
      ],
      "name": "isPostOwner",
      "outputs": [
        {
          "internalType": "bool",
          "name": "",
          "type": "bool"
        }
      ],
      "stateMutability": "view",
      "type": "function",
      "constant": true
    },
    {
      "inputs": [
        {
          "internalType": "address",
          "name": "_user",
          "type": "address"
        }
      ],
      "name": "follow",
      "outputs": [],
      "stateMutability": "nonpayable",
      "type": "function"
    },
    {
      "inputs": [],
      "name": "getFollowingCount",
      "outputs": [
        {
          "internalType": "uint256",
          "name": "",
          "type": "uint256"
        }
      ],
      "stateMutability": "view",
      "type": "function",
      "constant": true
    }
  ],
  "bytecode": "0x60806040523480156200001157600080fd5b506040516200426f3803806200426f8339818101604052810190620000379190620002e3565b8260009081620000489190620005c8565b5081600190816200005a9190620005c8565b5033600260006101000a81548173ffffffffffffffffffffffffffffffffffffffff021916908373ffffffffffffffffffffffffffffffffffffffff16021790555080600560006101000a81548167ffffffffffffffff021916908360070b67ffffffffffffffff16021790555060006004819055507f0b0376a109cbb578b709f85f6a7befcdac3ac1ab251c99ede87f30c9572ac4d330604051620001019190620006f4565b60405180910390a150505062000711565b6000604051905090565b600080fd5b600080fd5b600080fd5b600080fd5b6000601f19601f8301169050919050565b7f4e487b7100000000000000000000000000000000000000000000000000000000600052604160045260246000fd5b6200017b8262000130565b810181811067ffffffffffffffff821117156200019d576200019c62000141565b5b80604052505050565b6000620001b262000112565b9050620001c0828262000170565b919050565b600067ffffffffffffffff821115620001e357620001e262000141565b5b620001ee8262000130565b9050602081019050919050565b60005b838110156200021b578082015181840152602081019050620001fe565b60008484015250505050565b60006200023e6200023884620001c5565b620001a6565b9050828152602081018484840111156200025d576200025c6200012b565b5b6200026a848285620001fb565b509392505050565b600082601f8301126200028a576200028962000126565b5b81516200029c84826020860162000227565b91505092915050565b60008160070b9050919050565b620002bd81620002a5565b8114620002c957600080fd5b50565b600081519050620002dd81620002b2565b92915050565b600080600060608486031215620002ff57620002fe6200011c565b5b600084015167ffffffffffffffff81111562000320576200031f62000121565b5b6200032e8682870162000272565b935050602084015167ffffffffffffffff81111562000352576200035162000121565b5b620003608682870162000272565b92505060406200037386828701620002cc565b9150509250925092565b600081519050919050565b7f4e487b7100000000000000000000000000000000000000000000000000000000600052602260045260246000fd5b60006002820490506001821680620003d057607f821691505b602082108103620003e657620003e562000388565b5b50919050565b60008190508160005260206000209050919050565b60006020601f8301049050919050565b600082821b905092915050565b600060088302620004507fffffffffffffffffffffffffffffffffffffffffffffffffffffffffffffffff8262000411565b6200045c868362000411565b95508019841693508086168417925050509392505050565b6000819050919050565b6000819050919050565b6000620004a9620004a36200049d8462000474565b6200047e565b62000474565b9050919050565b6000819050919050565b620004c58362000488565b620004dd620004d482620004b0565b8484546200041e565b825550505050565b600090565b620004f4620004e5565b62000501818484620004ba565b505050565b5b8181101562000529576200051d600082620004ea565b60018101905062000507565b5050565b601f82111562000578576200054281620003ec565b6200054d8462000401565b810160208510156200055d578190505b620005756200056c8562000401565b83018262000506565b50505b505050565b600082821c905092915050565b60006200059d600019846008026200057d565b1980831691505092915050565b6000620005b883836200058a565b9150826002028217905092915050565b620005d3826200037d565b67ffffffffffffffff811115620005ef57620005ee62000141565b5b620005fb8254620003b7565b620006088282856200052d565b600060209050601f8311600181146200064057600084156200062b578287015190505b620006378582620005aa565b865550620006a7565b601f1984166200065086620003ec565b60005b828110156200067a5784890151825560018201915060208501945060208101905062000653565b868310156200069a578489015162000696601f8916826200058a565b8355505b6001600288020188555050505b505050505050565b600073ffffffffffffffffffffffffffffffffffffffff82169050919050565b6000620006dc82620006af565b9050919050565b620006ee81620006cf565b82525050565b60006020820190506200070b6000830184620006e3565b92915050565b613b4e80620007216000396000f3fe608060405260043610620000f25760003560e01c806384da92a7116200008b578063b4960ce51162000061578063b4960ce514620002d7578063f06099af14620002f7578063f2fde38b1462000325578063fc7966ff146200035357620000f2565b806384da92a714620002495780638da5cb5b1462000277578063a035b1fe14620002a757620000f2565b80634b10fe1511620000cd5780634b10fe15146200019b5780634dbf27cc14620001a757806374a5a41b14620001d55780637e79e8ba146200021957620000f2565b806306fdde0314620000f75780631c40300f14620001275780632f76ca39146200016b575b600080fd5b3480156200010457600080fd5b506200010f62000397565b6040516200011e919062000f22565b60405180910390f35b3480156200013457600080fd5b506200015360048036038101906200014d9190620010f0565b6200042d565b604051620001629190620011cf565b60405180910390f35b3480156200017857600080fd5b506200018362000549565b60405162000192919062001207565b60405180910390f35b620001a562000553565b005b348015620001b457600080fd5b50620001d36004803603810190620001cd919062001255565b620006c1565b005b348015620001e257600080fd5b50620002016004803603810190620001fb919062001255565b62000802565b604051620002109190620012a4565b60405180910390f35b3480156200022657600080fd5b506200023162000822565b60405162000240919062000f22565b60405180910390f35b3480156200025657600080fd5b506200027560048036038101906200026f9190620012c1565b6200094f565b005b3480156200028457600080fd5b506200028f62000a31565b6040516200029e919062001337565b60405180910390f35b348015620002b457600080fd5b50620002bf62000a57565b604051620002ce919062001372565b60405180910390f35b620002f56004803603810190620002ef919062001255565b62000a6a565b005b3480156200030457600080fd5b506200032360048036038101906200031d9190620012c1565b62000b1c565b005b3480156200033257600080fd5b506200035160048036038101906200034b919062001255565b62000bfe565b005b3480156200036057600080fd5b506200037f600480360381019062000379919062001255565b62000dcc565b6040516200038e9190620012a4565b60405180910390f35b60008054620003a690620013be565b80601f0160208091040260200160405190810160405280929190818152602001828054620003d490620013be565b8015620004255780601f10620003f95761010080835404028352916020019162000425565b820191906000526020600020905b8154815290600101906020018083116200040757829003601f168201915b505050505081565b6000600260009054906101000a900473ffffffffffffffffffffffffffffffffffffffff1673ffffffffffffffffffffffffffffffffffffffff163373ffffffffffffffffffffffffffffffffffffffff1614620004c2576040517f08c379a0000000000000000000000000000000000000000000000000000000008152600401620004b99062001469565b60405180910390fd5b600084848430604051620004d69062000e7a565b620004e594939291906200149c565b604051809103906000f08015801562000502573d6000803e3d6000fd5b5090507f834ca3a72f02237ff99ee1186fd5a3169c0dfb014a0f2f453b12305ee456bb8181604051620005369190620011cf565b60405180910390a1809150509392505050565b6000600454905090565b600560009054906101000a900460070b67ffffffffffffffff163414620005b1576040517f08c379a0000000000000000000000000000000000000000000000000000000008152600401620005a8906200156d565b60405180910390fd5b6000600260009054906101000a900473ffffffffffffffffffffffffffffffffffffffff16905033600260006101000a81548173ffffffffffffffffffffffffffffffffffffffff021916908373ffffffffffffffffffffffffffffffffffffffff1602179055508073ffffffffffffffffffffffffffffffffffffffff166108fc349081150290604051600060405180830381858888f1935050505015801562000660573d6000803e3d6000fd5b507f8be0079c531659141344cd1fd0a4f28419497f9722a3daafe3b4186f6b6457e081600260009054906101000a900473ffffffffffffffffffffffffffffffffffffffff16604051620006b6929190620015fa565b60405180910390a150565b600260009054906101000a900473ffffffffffffffffffffffffffffffffffffffff1673ffffffffffffffffffffffffffffffffffffffff163373ffffffffffffffffffffffffffffffffffffffff161462000754576040517f08c379a00000000000000000000000000000000000000000000000000000000081526004016200074b906200169d565b60405180910390fd5b6001600360008373ffffffffffffffffffffffffffffffffffffffff1673ffffffffffffffffffffffffffffffffffffffff16815260200190815260200160002060006101000a81548160ff02191690831515021790555060046000815480929190620007c190620016ee565b91905055507f4cc7d9539ce01437cdeb528a3129c5cda0d65929048a1f9942d9dae632e7037081604051620007f79190620011cf565b60405180910390a150565b60036020528060005260406000206000915054906101000a900460ff1681565b6060600260009054906101000a900473ffffffffffffffffffffffffffffffffffffffff1673ffffffffffffffffffffffffffffffffffffffff163373ffffffffffffffffffffffffffffffffffffffff1614620008b7576040517f08c379a0000000000000000000000000000000000000000000000000000000008152600401620008ae90620017b1565b60405180910390fd5b60018054620008c690620013be565b80601f0160208091040260200160405190810160405280929190818152602001828054620008f490620013be565b8015620009455780601f10620009195761010080835404028352916020019162000945565b820191906000526020600020905b8154815290600101906020018083116200092757829003601f168201915b5050505050905090565b600260009054906101000a900473ffffffffffffffffffffffffffffffffffffffff1673ffffffffffffffffffffffffffffffffffffffff163373ffffffffffffffffffffffffffffffffffffffff1614620009e2576040517f08c379a0000000000000000000000000000000000000000000000000000000008152600401620009d99062001849565b60405180910390fd5b8060009081620009f3919062001a33565b507f9f7688a97f1ac51fe03bac18af18d6810f9f11f0db08c59b1938a9ac825ef744600060405162000a26919062001baa565b60405180910390a150565b600260009054906101000a900473ffffffffffffffffffffffffffffffffffffffff1681565b600560009054906101000a900460070b81565b60008190508073ffffffffffffffffffffffffffffffffffffffff1663f088d54734306040518363ffffffff1660e01b815260040162000aab9190620011cf565b6000604051808303818588803b15801562000ac557600080fd5b505af115801562000ada573d6000803e3d6000fd5b50505050507f698ca108648c5fb5dfc2a074c43ea1a600228e050fe1030f635c04483e100b508260405162000b109190620011cf565b60405180910390a15050565b600260009054906101000a900473ffffffffffffffffffffffffffffffffffffffff1673ffffffffffffffffffffffffffffffffffffffff163373ffffffffffffffffffffffffffffffffffffffff161462000baf576040517f08c379a000000000000000000000000000000000000000000000000000000000815260040162000ba69062001c44565b60405180910390fd5b806001908162000bc0919062001a33565b507f0556871f901790e1ea1d760c89698406d95c0085b6e0d7b89581ee078ccac5f0600160405162000bf3919062001baa565b60405180910390a150565b600073ffffffffffffffffffffffffffffffffffffffff168173ffffffffffffffffffffffffffffffffffffffff160362000c70576040517f08c379a000000000000000000000000000000000000000000000000000000000815260040162000c679062001cb6565b60405180910390fd5b600260009054906101000a900473ffffffffffffffffffffffffffffffffffffffff1673ffffffffffffffffffffffffffffffffffffffff163373ffffffffffffffffffffffffffffffffffffffff161462000d03576040517f08c379a000000000000000000000000000000000000000000000000000000000815260040162000cfa9062001d4e565b60405180910390fd5b6000600260009054906101000a900473ffffffffffffffffffffffffffffffffffffffff16905081600260006101000a81548173ffffffffffffffffffffffffffffffffffffffff021916908373ffffffffffffffffffffffffffffffffffffffff1602179055507f8be0079c531659141344cd1fd0a4f28419497f9722a3daafe3b4186f6b6457e081600260009054906101000a900473ffffffffffffffffffffffffffffffffffffffff1660405162000dc0929190620015fa565b60405180910390a15050565b6000808290503073ffffffffffffffffffffffffffffffffffffffff168173ffffffffffffffffffffffffffffffffffffffff1663893d20e86040518163ffffffff1660e01b8152600401602060405180830381865afa15801562000e35573d6000803e3d6000fd5b505050506040513d601f19601f8201168201806040525081019062000e5b919062001d87565b73ffffffffffffffffffffffffffffffffffffffff1614915050919050565b611d5f8062001dba83390190565b600081519050919050565b600082825260208201905092915050565b60005b8381101562000ec457808201518184015260208101905062000ea7565b60008484015250505050565b6000601f19601f8301169050919050565b600062000eee8262000e88565b62000efa818562000e93565b935062000f0c81856020860162000ea4565b62000f178162000ed0565b840191505092915050565b6000602082019050818103600083015262000f3e818462000ee1565b905092915050565b6000604051905090565b600080fd5b600080fd5b600080fd5b600080fd5b7f4e487b7100000000000000000000000000000000000000000000000000000000600052604160045260246000fd5b62000f9e8262000ed0565b810181811067ffffffffffffffff8211171562000fc05762000fbf62000f64565b5b80604052505050565b600062000fd562000f46565b905062000fe3828262000f93565b919050565b600067ffffffffffffffff82111562001006576200100562000f64565b5b620010118262000ed0565b9050602081019050919050565b82818337600083830152505050565b6000620010446200103e8462000fe8565b62000fc9565b90508281526020810184848401111562001063576200106262000f5f565b5b620010708482856200101e565b509392505050565b600082601f83011262001090576200108f62000f5a565b5b8135620010a28482602086016200102d565b91505092915050565b600067ffffffffffffffff82169050919050565b620010ca81620010ab565b8114620010d657600080fd5b50565b600081359050620010ea81620010bf565b92915050565b6000806000606084860312156200110c576200110b62000f50565b5b600084013567ffffffffffffffff8111156200112d576200112c62000f55565b5b6200113b8682870162001078565b935050602084013567ffffffffffffffff8111156200115f576200115e62000f55565b5b6200116d8682870162001078565b92505060406200118086828701620010d9565b9150509250925092565b600073ffffffffffffffffffffffffffffffffffffffff82169050919050565b6000620011b7826200118a565b9050919050565b620011c981620011aa565b82525050565b6000602082019050620011e66000830184620011be565b92915050565b6000819050919050565b6200120181620011ec565b82525050565b60006020820190506200121e6000830184620011f6565b92915050565b6200122f81620011aa565b81146200123b57600080fd5b50565b6000813590506200124f8162001224565b92915050565b6000602082840312156200126e576200126d62000f50565b5b60006200127e848285016200123e565b91505092915050565b60008115159050919050565b6200129e8162001287565b82525050565b6000602082019050620012bb600083018462001293565b92915050565b600060208284031215620012da57620012d962000f50565b5b600082013567ffffffffffffffff811115620012fb57620012fa62000f55565b5b620013098482850162001078565b91505092915050565b60006200131f826200118a565b9050919050565b620013318162001312565b82525050565b60006020820190506200134e600083018462001326565b92915050565b60008160070b9050919050565b6200136c8162001354565b82525050565b600060208201905062001389600083018462001361565b92915050565b7f4e487b7100000000000000000000000000000000000000000000000000000000600052602260045260246000fd5b60006002820490506001821680620013d757607f821691505b602082108103620013ed57620013ec6200138f565b5b50919050565b7f596f75206d75737420626520746865206f776e6572206f66207468697320757360008201527f657220746f20637265617465206120706f737400000000000000000000000000602082015250565b60006200145160338362000e93565b91506200145e82620013f3565b604082019050919050565b60006020820190508181036000830152620014848162001442565b9050919050565b6200149681620010ab565b82525050565b60006080820190508181036000830152620014b8818762000ee1565b90508181036020830152620014ce818662000ee1565b9050620014df60408301856200148b565b620014ee6060830184620011be565b95945050505050565b7f596f75206d757374207061792074686520707269636520746f2062757920746860008201527f6973207573657200000000000000000000000000000000000000000000000000602082015250565b60006200155560278362000e93565b91506200156282620014f7565b604082019050919050565b60006020820190508181036000830152620015888162001546565b9050919050565b6000819050919050565b6000620015ba620015b4620015ae846200118a565b6200158f565b6200118a565b9050919050565b6000620015ce8262001599565b9050919050565b6000620015e282620015c1565b9050919050565b620015f481620015d5565b82525050565b6000604082019050620016116000830185620011be565b620016206020830184620015e9565b9392505050565b7f596f75206d75737420626520746865206f776e6572206f66207468697320757360008201527f657220746f20666f6c6c6f7720616e6f74686572207573657200000000000000602082015250565b60006200168560398362000e93565b9150620016928262001627565b604082019050919050565b60006020820190508181036000830152620016b88162001676565b9050919050565b7f4e487b7100000000000000000000000000000000000000000000000000000000600052601160045260246000fd5b6000620016fb82620011ec565b91507fffffffffffffffffffffffffffffffffffffffffffffffffffffffffffffffff820362001730576200172f620016bf565b5b600182019050919050565b7f596f75206d75737420626520746865206f776e6572206f66207468697320757360008201527f657220746f2073686f772074686520656d61696c000000000000000000000000602082015250565b60006200179960348362000e93565b9150620017a6826200173b565b604082019050919050565b60006020820190508181036000830152620017cc816200178a565b9050919050565b7f596f75206d75737420626520746865206f776e6572206f66207468697320757360008201527f657220746f2075706461746520746865206e616d650000000000000000000000602082015250565b60006200183160358362000e93565b91506200183e82620017d3565b604082019050919050565b60006020820190508181036000830152620018648162001822565b9050919050565b60008190508160005260206000209050919050565b60006020601f8301049050919050565b600082821b905092915050565b600060088302620018cf7fffffffffffffffffffffffffffffffffffffffffffffffffffffffffffffffff8262001890565b620018db868362001890565b95508019841693508086168417925050509392505050565b6000620019146200190e6200190884620011ec565b6200158f565b620011ec565b9050919050565b6000819050919050565b6200193083620018f3565b620019486200193f826200191b565b8484546200189d565b825550505050565b600090565b6200195f62001950565b6200196c81848462001925565b505050565b5b8181101562001994576200198860008262001955565b60018101905062001972565b5050565b601f821115620019e357620019ad816200186b565b620019b88462001880565b81016020851015620019c8578190505b620019e0620019d78562001880565b83018262001971565b50505b505050565b600082821c905092915050565b600062001a0860001984600802620019e8565b1980831691505092915050565b600062001a238383620019f5565b9150826002028217905092915050565b62001a3e8262000e88565b67ffffffffffffffff81111562001a5a5762001a5962000f64565b5b62001a668254620013be565b62001a7382828562001998565b600060209050601f83116001811462001aab576000841562001a96578287015190505b62001aa2858262001a15565b86555062001b12565b601f19841662001abb866200186b565b60005b8281101562001ae55784890151825560018201915060208501945060208101905062001abe565b8683101562001b05578489015162001b01601f891682620019f5565b8355505b6001600288020188555050505b505050505050565b6000815462001b2981620013be565b62001b35818662000e93565b9450600182166000811462001b53576001811462001b6a5762001ba1565b60ff19831686528115156020028601935062001ba1565b62001b75856200186b565b60005b8381101562001b995781548189015260018201915060208101905062001b78565b808801955050505b50505092915050565b6000602082019050818103600083015262001bc6818462001b1a565b905092915050565b7f596f75206d75737420626520746865206f776e6572206f66207468697320757360008201527f657220746f207570646174652074686520656d61696c00000000000000000000602082015250565b600062001c2c60368362000e93565b915062001c398262001bce565b604082019050919050565b6000602082019050818103600083015262001c5f8162001c1d565b9050919050565b7f4e6577206f776e65722063616e6e6f7420626520616464726573732830290000600082015250565b600062001c9e601e8362000e93565b915062001cab8262001c66565b602082019050919050565b6000602082019050818103600083015262001cd18162001c8f565b9050919050565b7f596f75206d75737420626520746865206f776e6572206f66207468697320757360008201527f657220746f207472616e73666572206f776e6572736869700000000000000000602082015250565b600062001d3660388362000e93565b915062001d438262001cd8565b604082019050919050565b6000602082019050818103600083015262001d698162001d27565b9050919050565b60008151905062001d818162001224565b92915050565b60006020828403121562001da05762001d9f62000f50565b5b600062001db08482850162001d70565b9150509291505056fe60806040523480156200001157600080fd5b5060405162001d5f38038062001d5f833981810160405281019062000037919062000407565b600073ffffffffffffffffffffffffffffffffffffffff168173ffffffffffffffffffffffffffffffffffffffff1603620000a9576040517f08c379a0000000000000000000000000000000000000000000000000000000008152600401620000a09062000518565b60405180910390fd5b8360009081620000ba919062000785565b508260019081620000cc919062000785565b5080600260006101000a81548173ffffffffffffffffffffffffffffffffffffffff021916908373ffffffffffffffffffffffffffffffffffffffff16021790555080600360006101000a81548173ffffffffffffffffffffffffffffffffffffffff021916908373ffffffffffffffffffffffffffffffffffffffff1602179055504260048190555081600560006101000a81548167ffffffffffffffff021916908367ffffffffffffffff16021790555060006007819055507fb28b103e6296194f6aecace93990102a06a5ae0720dc23aaf51589d563d52dde30604051620001b891906200087d565b60405180910390a1505050506200089a565b6000604051905090565b600080fd5b600080fd5b600080fd5b600080fd5b6000601f19601f8301169050919050565b7f4e487b7100000000000000000000000000000000000000000000000000000000600052604160045260246000fd5b6200023382620001e8565b810181811067ffffffffffffffff82111715620002555762000254620001f9565b5b80604052505050565b60006200026a620001ca565b905062000278828262000228565b919050565b600067ffffffffffffffff8211156200029b576200029a620001f9565b5b620002a682620001e8565b9050602081019050919050565b60005b83811015620002d3578082015181840152602081019050620002b6565b60008484015250505050565b6000620002f6620002f0846200027d565b6200025e565b905082815260208101848484011115620003155762000314620001e3565b5b62000322848285620002b3565b509392505050565b600082601f830112620003425762000341620001de565b5b815162000354848260208601620002df565b91505092915050565b600067ffffffffffffffff82169050919050565b6200037c816200035d565b81146200038857600080fd5b50565b6000815190506200039c8162000371565b92915050565b600073ffffffffffffffffffffffffffffffffffffffff82169050919050565b6000620003cf82620003a2565b9050919050565b620003e181620003c2565b8114620003ed57600080fd5b50565b6000815190506200040181620003d6565b92915050565b60008060008060808587031215620004245762000423620001d4565b5b600085015167ffffffffffffffff811115620004455762000444620001d9565b5b62000453878288016200032a565b945050602085015167ffffffffffffffff811115620004775762000476620001d9565b5b62000485878288016200032a565b935050604062000498878288016200038b565b9250506060620004ab87828801620003f0565b91505092959194509250565b600082825260208201905092915050565b7f417574686f72206d75737420626520612076616c696420757365720000000000600082015250565b600062000500601b83620004b7565b91506200050d82620004c8565b602082019050919050565b600060208201905081810360008301526200053381620004f1565b9050919050565b600081519050919050565b7f4e487b7100000000000000000000000000000000000000000000000000000000600052602260045260246000fd5b600060028204905060018216806200058d57607f821691505b602082108103620005a357620005a262000545565b5b50919050565b60008190508160005260206000209050919050565b60006020601f8301049050919050565b600082821b905092915050565b6000600883026200060d7fffffffffffffffffffffffffffffffffffffffffffffffffffffffffffffffff82620005ce565b620006198683620005ce565b95508019841693508086168417925050509392505050565b6000819050919050565b6000819050919050565b600062000666620006606200065a8462000631565b6200063b565b62000631565b9050919050565b6000819050919050565b620006828362000645565b6200069a62000691826200066d565b848454620005db565b825550505050565b600090565b620006b1620006a2565b620006be81848462000677565b505050565b5b81811015620006e657620006da600082620006a7565b600181019050620006c4565b5050565b601f8211156200073557620006ff81620005a9565b6200070a84620005be565b810160208510156200071a578190505b620007326200072985620005be565b830182620006c3565b50505b505050565b600082821c905092915050565b60006200075a600019846008026200073a565b1980831691505092915050565b600062000775838362000747565b9150826002028217905092915050565b62000790826200053a565b67ffffffffffffffff811115620007ac57620007ab620001f9565b5b620007b8825462000574565b620007c5828285620006ea565b600060209050601f831160018114620007fd5760008415620007e8578287015190505b620007f4858262000767565b86555062000864565b601f1984166200080d86620005a9565b60005b82811015620008375784890151825560018201915060208501945060208101905062000810565b8683101562000857578489015162000853601f89168262000747565b8355505b6001600288020188555050505b505050505050565b6200087781620003c2565b82525050565b60006020820190506200089460008301846200086c565b92915050565b6114b580620008aa6000396000f3fe6080604052600436106100a75760003560e01c8063a035b1fe11610064578063a035b1fe146101c0578063a6c3e6b9146101eb578063cf09e0d014610216578063e465c46514610241578063e80f37e41461026a578063f088d54714610293576100a7565b80630353701a146100ac5780634a79d50c146100d7578063737d368514610102578063893d20e81461013f5780638a4d5a671461016a5780638da5cb5b14610195575b600080fd5b3480156100b857600080fd5b506100c16102af565b6040516100ce9190610d21565b60405180910390f35b3480156100e357600080fd5b506100ec6102b5565b6040516100f99190610dcc565b60405180910390f35b34801561010e57600080fd5b5061012960048036038101906101249190610e51565b610343565b6040516101369190610e99565b60405180910390f35b34801561014b57600080fd5b50610154610363565b6040516101619190610ec3565b60405180910390f35b34801561017657600080fd5b5061017f61038d565b60405161018c9190610dcc565b60405180910390f35b3480156101a157600080fd5b506101aa61041b565b6040516101b79190610ec3565b60405180910390f35b3480156101cc57600080fd5b506101d5610441565b6040516101e29190610f01565b60405180910390f35b3480156101f757600080fd5b5061020061045b565b60405161020d9190610ec3565b60405180910390f35b34801561022257600080fd5b5061022b610481565b6040516102389190610d21565b60405180910390f35b34801561024d57600080fd5b5061026860048036038101906102639190610e51565b610487565b005b34801561027657600080fd5b50610291600480360381019061028c9190610f48565b61070f565b005b6102ad60048036038101906102a89190610e51565b610a4c565b005b60075481565b600080546102c290610fb7565b80601f01602080910402602001604051908101604052809291908181526020018280546102ee90610fb7565b801561033b5780601f106103105761010080835404028352916020019161033b565b820191906000526020600020905b81548152906001019060200180831161031e57829003601f168201915b505050505081565b60066020528060005260406000206000915054906101000a900460ff1681565b6000600360009054906101000a900473ffffffffffffffffffffffffffffffffffffffff16905090565b6001805461039a90610fb7565b80601f01602080910402602001604051908101604052809291908181526020018280546103c690610fb7565b80156104135780601f106103e857610100808354040283529160200191610413565b820191906000526020600020905b8154815290600101906020018083116103f657829003601f168201915b505050505081565b600360009054906101000a900473ffffffffffffffffffffffffffffffffffffffff1681565b600560009054906101000a900467ffffffffffffffff1681565b600260009054906101000a900473ffffffffffffffffffffffffffffffffffffffff1681565b60045481565b600073ffffffffffffffffffffffffffffffffffffffff168173ffffffffffffffffffffffffffffffffffffffff16036104f6576040517f08c379a00000000000000000000000000000000000000000000000000000000081526004016104ed90611034565b60405180910390fd5b60008190503373ffffffffffffffffffffffffffffffffffffffff168173ffffffffffffffffffffffffffffffffffffffff16638da5cb5b6040518163ffffffff1660e01b8152600401602060405180830381865afa15801561055d573d6000803e3d6000fd5b505050506040513d601f19601f820116820180604052508101906105819190611092565b73ffffffffffffffffffffffffffffffffffffffff16146105d7576040517f08c379a00000000000000000000000000000000000000000000000000000000081526004016105ce90611131565b60405180910390fd5b600660008373ffffffffffffffffffffffffffffffffffffffff1673ffffffffffffffffffffffffffffffffffffffff16815260200190815260200160002060009054906101000a900460ff1615610664576040517f08c379a000000000000000000000000000000000000000000000000000000000815260040161065b9061119d565b60405180910390fd5b6001600660008473ffffffffffffffffffffffffffffffffffffffff1673ffffffffffffffffffffffffffffffffffffffff16815260200190815260200160002060006101000a81548160ff021916908315150217905550600760008154809291906106cf906111ec565b91905055507f44ac6e607615fb694244ba3334a814d86fb64337d5961fd91531260efe10a21d826040516107039190610ec3565b60405180910390a15050565b600073ffffffffffffffffffffffffffffffffffffffff168173ffffffffffffffffffffffffffffffffffffffff160361077e576040517f08c379a000000000000000000000000000000000000000000000000000000000815260040161077590611034565b60405180910390fd5b6000600360009054906101000a900473ffffffffffffffffffffffffffffffffffffffff16905060008290503373ffffffffffffffffffffffffffffffffffffffff168173ffffffffffffffffffffffffffffffffffffffff16638da5cb5b6040518163ffffffff1660e01b8152600401602060405180830381865afa15801561080c573d6000803e3d6000fd5b505050506040513d601f19601f820116820180604052508101906108309190611092565b73ffffffffffffffffffffffffffffffffffffffff1614610886576040517f08c379a000000000000000000000000000000000000000000000000000000000815260040161087d906112a6565b60405180910390fd5b8073ffffffffffffffffffffffffffffffffffffffff16638da5cb5b6040518163ffffffff1660e01b8152600401602060405180830381865afa1580156108d1573d6000803e3d6000fd5b505050506040513d601f19601f820116820180604052508101906108f59190611092565b73ffffffffffffffffffffffffffffffffffffffff168273ffffffffffffffffffffffffffffffffffffffff16638da5cb5b6040518163ffffffff1660e01b8152600401602060405180830381865afa158015610956573d6000803e3d6000fd5b505050506040513d601f19601f8201168201806040525081019061097a9190611092565b73ffffffffffffffffffffffffffffffffffffffff16146109d0576040517f08c379a00000000000000000000000000000000000000000000000000000000081526004016109c790611338565b60405180910390fd5b83600560006101000a81548167ffffffffffffffff021916908367ffffffffffffffff1602179055507fd16b8aa4b22cc689d510090657f28a22df35e4b15c729010ada4d9ba83b38154600560009054906101000a900467ffffffffffffffff16604051610a3e9190610f01565b60405180910390a150505050565b600073ffffffffffffffffffffffffffffffffffffffff168173ffffffffffffffffffffffffffffffffffffffff1603610abb576040517f08c379a0000000000000000000000000000000000000000000000000000000008152600401610ab290611034565b60405180910390fd5b600560009054906101000a900467ffffffffffffffff1667ffffffffffffffff163414610b1d576040517f08c379a0000000000000000000000000000000000000000000000000000000008152600401610b14906113ca565b60405180910390fd5b6000600360009054906101000a900473ffffffffffffffffffffffffffffffffffffffff169050600073ffffffffffffffffffffffffffffffffffffffff168173ffffffffffffffffffffffffffffffffffffffff1603610bb3576040517f08c379a0000000000000000000000000000000000000000000000000000000008152600401610baa90611436565b60405180910390fd5b81600360006101000a81548173ffffffffffffffffffffffffffffffffffffffff021916908373ffffffffffffffffffffffffffffffffffffffff1602179055508073ffffffffffffffffffffffffffffffffffffffff16638da5cb5b6040518163ffffffff1660e01b8152600401602060405180830381865afa158015610c3f573d6000803e3d6000fd5b505050506040513d601f19601f82011682018060405250810190610c639190611092565b73ffffffffffffffffffffffffffffffffffffffff166108fc349081150290604051600060405180830381858888f19350505050158015610ca8573d6000803e3d6000fd5b507f0384899bd253d83b23daa4d29aaa2efe0563d1132b43101e9ad667235aeb951b81600360009054906101000a900473ffffffffffffffffffffffffffffffffffffffff16604051610cfc929190611456565b60405180910390a15050565b6000819050919050565b610d1b81610d08565b82525050565b6000602082019050610d366000830184610d12565b92915050565b600081519050919050565b600082825260208201905092915050565b60005b83811015610d76578082015181840152602081019050610d5b565b60008484015250505050565b6000601f19601f8301169050919050565b6000610d9e82610d3c565b610da88185610d47565b9350610db8818560208601610d58565b610dc181610d82565b840191505092915050565b60006020820190508181036000830152610de68184610d93565b905092915050565b600080fd5b600073ffffffffffffffffffffffffffffffffffffffff82169050919050565b6000610e1e82610df3565b9050919050565b610e2e81610e13565b8114610e3957600080fd5b50565b600081359050610e4b81610e25565b92915050565b600060208284031215610e6757610e66610dee565b5b6000610e7584828501610e3c565b91505092915050565b60008115159050919050565b610e9381610e7e565b82525050565b6000602082019050610eae6000830184610e8a565b92915050565b610ebd81610e13565b82525050565b6000602082019050610ed86000830184610eb4565b92915050565b600067ffffffffffffffff82169050919050565b610efb81610ede565b82525050565b6000602082019050610f166000830184610ef2565b92915050565b610f2581610ede565b8114610f3057600080fd5b50565b600081359050610f4281610f1c565b92915050565b60008060408385031215610f5f57610f5e610dee565b5b6000610f6d85828601610f33565b9250506020610f7e85828601610e3c565b9150509250929050565b7f4e487b7100000000000000000000000000000000000000000000000000000000600052602260045260246000fd5b60006002820490506001821680610fcf57607f821691505b602082108103610fe257610fe1610f88565b5b50919050565b7f55736572206d75737420626520612076616c6964207573657200000000000000600082015250565b600061101e601983610d47565b915061102982610fe8565b602082019050919050565b6000602082019050818103600083015261104d81611011565b9050919050565b600061105f82610df3565b9050919050565b61106f81611054565b811461107a57600080fd5b50565b60008151905061108c81611066565b92915050565b6000602082840312156110a8576110a7610dee565b5b60006110b68482850161107d565b91505092915050565b7f596f75206d75737420626520746865206f776e6572206f66207468652075736560008201527f7220746f206c696b65207468697320706f737400000000000000000000000000602082015250565b600061111b603383610d47565b9150611126826110bf565b604082019050919050565b6000602082019050818103600083015261114a8161110e565b9050919050565b7f596f7520616c7265616479206c696b6564207468697320706f73740000000000600082015250565b6000611187601b83610d47565b915061119282611151565b602082019050919050565b600060208201905081810360008301526111b68161117a565b9050919050565b7f4e487b7100000000000000000000000000000000000000000000000000000000600052601160045260246000fd5b60006111f782610d08565b91507fffffffffffffffffffffffffffffffffffffffffffffffffffffffffffffffff8203611229576112286111bd565b5b600182019050919050565b7f596f75206d75737420626520746865206f776e6572206f66207468697320757360008201527f657220746f206368616e67652074686520707269636500000000000000000000602082015250565b6000611290603683610d47565b915061129b82611234565b604082019050919050565b600060208201905081810360008301526112bf81611283565b9050919050565b7f596f75206d75737420626520746865206f776e6572206f66207468697320706f60008201527f737420746f206368616e67652074686520707269636500000000000000000000602082015250565b6000611322603683610d47565b915061132d826112c6565b604082019050919050565b6000602082019050818103600083015261135181611315565b9050919050565b7f596f75206d757374207061792074686520707269636520746f2062757920746860008201527f697320706f737400000000000000000000000000000000000000000000000000602082015250565b60006113b4602783610d47565b91506113bf82611358565b604082019050919050565b600060208201905081810360008301526113e3816113a7565b9050919050565b7f6f6c644f776e6572206d75737420626520612076616c69642075736572000000600082015250565b6000611420601d83610d47565b915061142b826113ea565b602082019050919050565b6000602082019050818103600083015261144f81611413565b9050919050565b600060408201905061146b6000830185610eb4565b6114786020830184610eb4565b939250505056fea2646970667358221220907df4c100477547dd39f4f57df602be05b19246c043fa917b66b4734605e78864736f6c63430008110033a264697066735822122005c42561b61ec9e549a49f96a84608444746a8b64d45dfa76db47a5641f03d3064736f6c63430008110033",
  "immutableReferences": {},
  "source": "// SPDX-License-Identifier: UNLICENSED\n\npragma solidity 0.8.17;\n\nimport \"./IUser.sol\";\nimport \"./Post.sol\";\nimport \"./IPost.sol\";\n\ncontract User is IUser {\n    // user's name\n    string public name;\n    // user's address\n    string private email;\n    // user's address\n    address payable public owner;\n    // user's followers\n    mapping(address => bool) public following;\n    // user's followers count\n    uint256 followingCount;\n    // price of the user\n    int64 public price;\n\n    constructor(string memory _name, string memory _email, int64 _price) {\n        name = _name;\n        email = _email;\n        owner = payable(msg.sender);\n        price = _price;\n        followingCount = 0;\n        emit UserCreated(address(this));\n    }\n\n    // update user name\n    function updateName(string memory _name) public override {\n        require(msg.sender == owner, \"You must be the owner of this user to update the name\");\n        // update name\n        name = _name;\n        // emit event of name update\n        emit NameUpdated(name);\n    }\n\n    // update user email\n    function updateEmail(string memory _email) public override {\n        require(msg.sender == owner, \"You must be the owner of this user to update the email\");\n        // update email\n        email = _email;\n        // emit event of email update\n        emit EmailUpdated(email);\n    }\n\n    // get email\n    function getEmail() public view override returns (string memory) {\n        // return email if the user is the owner of the account\n        require(msg.sender == owner, \"You must be the owner of this user to show the email\");\n        return email;\n    }\n\n    // transfer ownership of the user\n    function transferOwnership(address _newOwner) public override {\n        // check if _newOwner is address(0)\n        require(_newOwner != address(0), \"New owner cannot be address(0)\");\n        require(msg.sender == owner, \"You must be the owner of this user to transfer ownership\");\n        address oldOwner = owner;\n        // transfer ownership\n        owner = payable(_newOwner);\n        // emit event of ownership change\n        emit OwnershipTransferred(oldOwner, owner);\n    }\n\n    // buy a user\n    function buyUser() public payable override {\n        require(msg.value == uint64(price), \"You must pay the price to buy this user\");\n\n        address oldOwner = owner;\n        // transfer ownership\n        owner = payable(msg.sender);\n        // transfer money\n        payable(oldOwner).transfer(msg.value);\n        // emit event of ownership change\n        emit OwnershipTransferred(oldOwner, owner);\n    }\n\n\n    // create a new post\n    function createPost(string memory _title, string memory _content, uint64 _price) public override returns (address) {\n        require(msg.sender == owner, \"You must be the owner of this user to create a post\");\n        Post post = new Post(_title, _content, _price, address(this));\n        // emit event of post creation\n        emit PostCreatedFromUser(address(post));\n        return address(post);\n    }\n\n\n    // buy a post\n    function buyPost(address _post) public payable override {\n        Post post = Post(_post);\n        // buy the post\n        post.buy{value: msg.value}(address(this));\n        // emit event of post creation\n        emit PostBuyFromUser(_post);\n    }\n\n    // detect if a post is owned by the user\n    function isPostOwner(address _post) public view override returns (bool) {\n        Post post = Post(_post);\n        return post.getOwner() == address(this);\n    }\n\n    // user follow another user\n    function follow(address _user) public override {\n        require(msg.sender == owner, \"You must be the owner of this user to follow another user\");\n        // add to following\n        following[_user] = true;\n        followingCount++;\n        // emit event of follow\n        emit Followed(_user);\n    }\n\n    // get user followers count\n    function getFollowingCount() public view override returns (uint256) {\n        return followingCount;\n    }\n\n}\n",
  "sourcePath": "/home/martin/perso/postandby/on-chain/contracts/User.sol",
  "compiler": {
    "name": "solc",
    "version": "0.8.17+commit.8df45f5f.Emscripten.clang"
  },
  "schemaVersion": "3.4.10",
  "updatedAt": "2022-10-13T23:58:55.615Z",
  "networkType": "ethereum",
  "devdoc": {
    "kind": "dev",
    "methods": {},
    "version": 1
  },
  "userdoc": {
    "kind": "user",
    "methods": {},
    "version": 1
  }
}